{
  "_format": "hh-sol-artifact-1",
  "contractName": "Djob",
  "sourceName": "contracts/Job.sol",
  "abi": [
    {
      "inputs": [],
      "stateMutability": "nonpayable",
      "type": "constructor"
    },
    {
      "anonymous": false,
      "inputs": [
        {
          "indexed": false,
          "internalType": "uint256",
          "name": "jobId",
          "type": "uint256"
        },
        {
          "indexed": false,
          "internalType": "address",
          "name": "employerAddress",
          "type": "address"
        },
        {
          "indexed": false,
          "internalType": "address",
          "name": "freelancerAddress",
          "type": "address"
        }
      ],
      "name": "AppliedForJob",
      "type": "event"
    },
    {
      "anonymous": false,
      "inputs": [
        {
          "indexed": false,
          "internalType": "address",
          "name": "EmployerAddress",
          "type": "address"
        },
        {
          "indexed": false,
          "internalType": "string",
          "name": "name",
          "type": "string"
        }
      ],
      "name": "EmployerRegistered",
      "type": "event"
    },
    {
      "anonymous": false,
      "inputs": [
        {
          "indexed": false,
          "internalType": "address",
          "name": "freelancerAddress",
          "type": "address"
        },
        {
          "indexed": false,
          "internalType": "string[]",
          "name": "name",
          "type": "string[]"
        },
        {
          "indexed": false,
          "internalType": "uint256",
          "name": "amount",
          "type": "uint256"
        }
      ],
      "name": "FreelancerRegistered",
      "type": "event"
    },
    {
      "anonymous": false,
      "inputs": [
        {
          "indexed": false,
          "internalType": "uint256",
          "name": "jobId",
          "type": "uint256"
        },
        {
          "indexed": false,
          "internalType": "address",
          "name": "sender",
          "type": "address"
        },
        {
          "indexed": false,
          "internalType": "uint256",
          "name": "amount",
          "type": "uint256"
        }
      ],
      "name": "FundsDeposited",
      "type": "event"
    },
    {
      "anonymous": false,
      "inputs": [
        {
          "indexed": false,
          "internalType": "uint256",
          "name": "jobId",
          "type": "uint256"
        },
        {
          "indexed": false,
          "internalType": "address",
          "name": "freelancerAddress",
          "type": "address"
        },
        {
          "indexed": false,
          "internalType": "uint256",
          "name": "amount",
          "type": "uint256"
        }
      ],
      "name": "FundsReleased",
      "type": "event"
    },
    {
      "anonymous": false,
      "inputs": [
        {
          "indexed": false,
          "internalType": "uint256",
          "name": "jobId",
          "type": "uint256"
        },
        {
          "indexed": false,
          "internalType": "address",
          "name": "freelancerAddress",
          "type": "address"
        },
        {
          "indexed": false,
          "internalType": "uint256",
          "name": "payment",
          "type": "uint256"
        }
      ],
      "name": "JobCompleted",
      "type": "event"
    },
    {
      "anonymous": false,
      "inputs": [
        {
          "indexed": false,
          "internalType": "uint256",
          "name": "jobId",
          "type": "uint256"
        },
        {
          "indexed": false,
          "internalType": "string",
          "name": "title",
          "type": "string"
        }
      ],
      "name": "JobCreated",
      "type": "event"
    },
    {
      "anonymous": false,
      "inputs": [
        {
          "indexed": false,
          "internalType": "address",
          "name": "freelancer",
          "type": "address"
        },
        {
          "indexed": false,
          "internalType": "uint256",
          "name": "amount",
          "type": "uint256"
        }
      ],
      "name": "WithdrawFund",
      "type": "event"
    },
    {
      "inputs": [
        {
          "internalType": "uint256",
          "name": "",
          "type": "uint256"
        }
      ],
      "name": "allFreelancerAddresses",
      "outputs": [
        {
          "internalType": "address",
          "name": "",
          "type": "address"
        }
      ],
      "stateMutability": "view",
      "type": "function"
    },
    {
      "inputs": [],
      "name": "allJobs",
      "outputs": [
        {
          "components": [
            {
              "internalType": "uint8",
              "name": "id",
              "type": "uint8"
            },
            {
              "internalType": "address",
              "name": "employer",
              "type": "address"
            },
            {
              "internalType": "string",
              "name": "title",
              "type": "string"
            },
            {
              "internalType": "string",
              "name": "description",
              "type": "string"
            },
            {
              "internalType": "uint256",
              "name": "budget",
              "type": "uint256"
            },
            {
              "internalType": "bool",
              "name": "completed",
              "type": "bool"
            },
            {
              "internalType": "address[]",
              "name": "applicants",
              "type": "address[]"
            },
            {
              "internalType": "address",
              "name": "hiredFreelancer",
              "type": "address"
            }
          ],
          "internalType": "struct Djob.Job[]",
          "name": "props",
          "type": "tuple[]"
        }
      ],
      "stateMutability": "view",
      "type": "function"
    },
    {
      "inputs": [
        {
          "internalType": "uint256",
          "name": "jobId",
          "type": "uint256"
        }
      ],
      "name": "applyForJob",
      "outputs": [],
      "stateMutability": "nonpayable",
      "type": "function"
    },
    {
      "inputs": [
        {
          "internalType": "uint256",
          "name": "jobId",
          "type": "uint256"
        },
        {
          "internalType": "address",
          "name": "freelancerAddress",
          "type": "address"
        }
      ],
      "name": "completeJob",
      "outputs": [],
      "stateMutability": "nonpayable",
      "type": "function"
    },
    {
      "inputs": [
        {
          "internalType": "string",
          "name": "_title",
          "type": "string"
        },
        {
          "internalType": "string",
          "name": "_description",
          "type": "string"
        },
        {
          "internalType": "uint256",
          "name": "_budget",
          "type": "uint256"
        }
      ],
      "name": "createJob",
      "outputs": [],
      "stateMutability": "nonpayable",
      "type": "function"
    },
    {
      "inputs": [
        {
          "internalType": "address",
          "name": "",
          "type": "address"
        }
      ],
      "name": "employers",
      "outputs": [
        {
          "internalType": "address",
          "name": "employerAddress",
          "type": "address"
        },
        {
          "internalType": "string",
          "name": "name",
          "type": "string"
        },
        {
          "internalType": "string",
          "name": "industry",
          "type": "string"
        },
        {
          "internalType": "uint256",
          "name": "balance",
          "type": "uint256"
        },
        {
          "internalType": "string",
          "name": "country",
          "type": "string"
        },
        {
          "internalType": "string",
          "name": "image",
          "type": "string"
        },
        {
          "internalType": "bool",
          "name": "registered",
          "type": "bool"
        },
        {
          "internalType": "uint256",
          "name": "registration_date",
          "type": "uint256"
        }
      ],
      "stateMutability": "view",
      "type": "function"
    },
    {
      "inputs": [
        {
          "internalType": "address",
          "name": "",
          "type": "address"
        }
      ],
      "name": "freelancers",
      "outputs": [
        {
          "internalType": "address",
          "name": "freelancerAddress",
          "type": "address"
        },
        {
          "internalType": "string",
          "name": "name",
          "type": "string"
        },
        {
          "internalType": "string",
          "name": "skills",
          "type": "string"
        },
        {
          "internalType": "uint256",
          "name": "balance",
          "type": "uint256"
        },
        {
          "internalType": "string",
          "name": "country",
          "type": "string"
        },
        {
          "internalType": "string",
          "name": "gigTitle",
          "type": "string"
        },
        {
          "internalType": "string",
          "name": "gitDescription",
          "type": "string"
        },
        {
          "internalType": "uint256",
          "name": "jobsCompleted",
          "type": "uint256"
        },
        {
          "internalType": "bool",
          "name": "registered",
          "type": "bool"
        },
        {
          "internalType": "uint256",
          "name": "registration_date",
          "type": "uint256"
        },
        {
          "internalType": "uint256",
          "name": "starting_price",
          "type": "uint256"
        }
      ],
      "stateMutability": "view",
      "type": "function"
    },
    {
      "inputs": [
        {
          "internalType": "uint256",
          "name": "jobId",
          "type": "uint256"
        }
      ],
      "name": "getJobByID",
      "outputs": [
        {
          "components": [
            {
              "internalType": "uint8",
              "name": "id",
              "type": "uint8"
            },
            {
              "internalType": "address",
              "name": "employer",
              "type": "address"
            },
            {
              "internalType": "string",
              "name": "title",
              "type": "string"
            },
            {
              "internalType": "string",
              "name": "description",
              "type": "string"
            },
            {
              "internalType": "uint256",
              "name": "budget",
              "type": "uint256"
            },
            {
              "internalType": "bool",
              "name": "completed",
              "type": "bool"
            },
            {
              "internalType": "address[]",
              "name": "applicants",
              "type": "address[]"
            },
            {
              "internalType": "address",
              "name": "hiredFreelancer",
              "type": "address"
            }
          ],
          "internalType": "struct Djob.Job",
          "name": "props",
          "type": "tuple"
        }
      ],
      "stateMutability": "view",
      "type": "function"
    },
    {
      "inputs": [],
      "name": "owner",
      "outputs": [
        {
          "internalType": "address",
          "name": "",
          "type": "address"
        }
      ],
      "stateMutability": "view",
      "type": "function"
    },
    {
      "inputs": [],
      "name": "totalCompletedJobs",
      "outputs": [
        {
          "internalType": "uint256",
          "name": "",
          "type": "uint256"
        }
      ],
      "stateMutability": "view",
      "type": "function"
    },
    {
      "inputs": [],
      "name": "totalEmployers",
      "outputs": [
        {
          "internalType": "uint256",
          "name": "",
          "type": "uint256"
        }
      ],
      "stateMutability": "view",
      "type": "function"
    },
    {
      "inputs": [],
      "name": "totalFreelancers",
      "outputs": [
        {
          "internalType": "uint256",
          "name": "",
          "type": "uint256"
        }
      ],
      "stateMutability": "view",
      "type": "function"
    },
    {
      "inputs": [],
      "name": "totalJobs",
      "outputs": [
        {
          "internalType": "uint8",
          "name": "",
          "type": "uint8"
        }
      ],
      "stateMutability": "view",
      "type": "function"
    }
  ],
  "bytecode": "0x608060405234801561001057600080fd5b50336000806101000a81548173ffffffffffffffffffffffffffffffffffffffff021916908373ffffffffffffffffffffffffffffffffffffffff160217905550612bca806100606000396000f3fe608060405234801561001057600080fd5b50600436106100cf5760003560e01c80635e586eb11161008c5780638da5cb5b116100665780638da5cb5b14610225578063c27a9dd414610243578063c8d1b6aa14610273578063e0c94ae514610291576100cf565b80635e586eb1146101cf5780636a6b67d1146101ed57806373a06f4214610209576100cf565b80630be435bd146100d45780631033397b1461010b5780631906b4ce146101295780631ace87b31461014757806321bd669314610165578063371ae9f41461019f575b600080fd5b6100ee60048036038101906100e99190611b0b565b6102ad565b604051610102989796959493929190611c0b565b60405180910390f35b610113610542565b6040516101209190611ca5565b60405180910390f35b610131610548565b60405161013e9190611ca5565b60405180910390f35b61014f61054e565b60405161015c9190611cdc565b60405180910390f35b61017f600480360381019061017a9190611b0b565b610561565b6040516101969b9a99989796959493929190611cf7565b60405180910390f35b6101b960048036038101906101b49190611df1565b610890565b6040516101c69190612011565b60405180910390f35b6101d7610bbf565b6040516101e49190611ca5565b60405180910390f35b61020760048036038101906102029190612033565b610bc5565b005b610223600480360381019061021e91906121a8565b610ec2565b005b61022d61120f565b60405161023a9190612233565b60405180910390f35b61025d60048036038101906102589190611df1565b611233565b60405161026a9190612233565b60405180910390f35b61027b611272565b60405161028891906123ce565b60405180910390f35b6102ab60048036038101906102a69190611df1565b6115f9565b005b60076020528060005260406000206000915090508060000160009054906101000a900473ffffffffffffffffffffffffffffffffffffffff16908060010180546102f69061241f565b80601f01602080910402602001604051908101604052809291908181526020018280546103229061241f565b801561036f5780601f106103445761010080835404028352916020019161036f565b820191906000526020600020905b81548152906001019060200180831161035257829003601f168201915b5050505050908060020180546103849061241f565b80601f01602080910402602001604051908101604052809291908181526020018280546103b09061241f565b80156103fd5780601f106103d2576101008083540402835291602001916103fd565b820191906000526020600020905b8154815290600101906020018083116103e057829003601f168201915b5050505050908060030154908060040180546104189061241f565b80601f01602080910402602001604051908101604052809291908181526020018280546104449061241f565b80156104915780601f1061046657610100808354040283529160200191610491565b820191906000526020600020905b81548152906001019060200180831161047457829003601f168201915b5050505050908060050180546104a69061241f565b80601f01602080910402602001604051908101604052809291908181526020018280546104d29061241f565b801561051f5780601f106104f45761010080835404028352916020019161051f565b820191906000526020600020905b81548152906001019060200180831161050257829003601f168201915b5050505050908060060160009054906101000a900460ff16908060070154905088565b60035481565b60025481565b600060149054906101000a900460ff1681565b60066020528060005260406000206000915090508060000160009054906101000a900473ffffffffffffffffffffffffffffffffffffffff16908060010180546105aa9061241f565b80601f01602080910402602001604051908101604052809291908181526020018280546105d69061241f565b80156106235780601f106105f857610100808354040283529160200191610623565b820191906000526020600020905b81548152906001019060200180831161060657829003601f168201915b5050505050908060020180546106389061241f565b80601f01602080910402602001604051908101604052809291908181526020018280546106649061241f565b80156106b15780601f10610686576101008083540402835291602001916106b1565b820191906000526020600020905b81548152906001019060200180831161069457829003601f168201915b5050505050908060030154908060040180546106cc9061241f565b80601f01602080910402602001604051908101604052809291908181526020018280546106f89061241f565b80156107455780601f1061071a57610100808354040283529160200191610745565b820191906000526020600020905b81548152906001019060200180831161072857829003601f168201915b50505050509080600501805461075a9061241f565b80601f01602080910402602001604051908101604052809291908181526020018280546107869061241f565b80156107d35780601f106107a8576101008083540402835291602001916107d3565b820191906000526020600020905b8154815290600101906020018083116107b657829003601f168201915b5050505050908060060180546107e89061241f565b80601f01602080910402602001604051908101604052809291908181526020018280546108149061241f565b80156108615780601f1061083657610100808354040283529160200191610861565b820191906000526020600020905b81548152906001019060200180831161084457829003601f168201915b5050505050908060080154908060090160009054906101000a900460ff169080600a01549080600b015490508b565b61089861197c565b6000821180156108ba5750600060149054906101000a900460ff1660ff168211155b6108f9576040517f08c379a00000000000000000000000000000000000000000000000000000000081526004016108f09061249c565b60405180910390fd5b60056000838152602001908152602001600020604051806101000160405290816000820160009054906101000a900460ff1660ff1660ff1681526020016000820160019054906101000a900473ffffffffffffffffffffffffffffffffffffffff1673ffffffffffffffffffffffffffffffffffffffff1673ffffffffffffffffffffffffffffffffffffffff16815260200160018201805461099b9061241f565b80601f01602080910402602001604051908101604052809291908181526020018280546109c79061241f565b8015610a145780601f106109e957610100808354040283529160200191610a14565b820191906000526020600020905b8154815290600101906020018083116109f757829003601f168201915b50505050508152602001600282018054610a2d9061241f565b80601f0160208091040260200160405190810160405280929190818152602001828054610a599061241f565b8015610aa65780601f10610a7b57610100808354040283529160200191610aa6565b820191906000526020600020905b815481529060010190602001808311610a8957829003601f168201915b50505050508152602001600382015481526020016004820160009054906101000a900460ff1615151515815260200160058201805480602002602001604051908101604052809291908181526020018280548015610b5957602002820191906000526020600020905b8160009054906101000a900473ffffffffffffffffffffffffffffffffffffffff1673ffffffffffffffffffffffffffffffffffffffff1681526020019060010190808311610b0f575b505050505081526020016006820160009054906101000a900473ffffffffffffffffffffffffffffffffffffffff1673ffffffffffffffffffffffffffffffffffffffff1673ffffffffffffffffffffffffffffffffffffffff16815250509050919050565b60015481565b338073ffffffffffffffffffffffffffffffffffffffff16600760003373ffffffffffffffffffffffffffffffffffffffff1673ffffffffffffffffffffffffffffffffffffffff16815260200190815260200160002060000160009054906101000a900473ffffffffffffffffffffffffffffffffffffffff1673ffffffffffffffffffffffffffffffffffffffff1614610c96576040517f08c379a0000000000000000000000000000000000000000000000000000000008152600401610c8d90612508565b60405180910390fd5b600060149054906101000a900460ff1660ff168311158015610cb85750600083115b610cf7576040517f08c379a0000000000000000000000000000000000000000000000000000000008152600401610cee90612574565b60405180910390fd5b6000600560008581526020019081526020016000209050600073ffffffffffffffffffffffffffffffffffffffff168160000160019054906101000a900473ffffffffffffffffffffffffffffffffffffffff1673ffffffffffffffffffffffffffffffffffffffff1603610da1576040517f08c379a0000000000000000000000000000000000000000000000000000000008152600401610d98906125e0565b60405180910390fd5b610dab818461190f565b610dea576040517f08c379a0000000000000000000000000000000000000000000000000000000008152600401610de19061264c565b60405180910390fd5b60008160030154905060018260040160006101000a81548160ff02191690831515021790555060036000815480929190610e239061269b565b9190505550600660008573ffffffffffffffffffffffffffffffffffffffff1673ffffffffffffffffffffffffffffffffffffffff1681526020019081526020016000206008016000815480929190610e7b9061269b565b91905055507f4dbba472101e9f148a3a5ecbe793f0ee16a7efe4bf3f8cbfab5330e1642ef955858583604051610eb3939291906126e3565b60405180910390a15050505050565b338073ffffffffffffffffffffffffffffffffffffffff16600760003373ffffffffffffffffffffffffffffffffffffffff1673ffffffffffffffffffffffffffffffffffffffff16815260200190815260200160002060000160009054906101000a900473ffffffffffffffffffffffffffffffffffffffff1673ffffffffffffffffffffffffffffffffffffffff1614610f93576040517f08c379a0000000000000000000000000000000000000000000000000000000008152600401610f8a90612508565b60405180910390fd5b6000601481819054906101000a900460ff1680929190610fb29061271a565b91906101000a81548160ff021916908360ff1602179055505060008060149054906101000a900460ff1690506040518061010001604052808260ff1681526020013373ffffffffffffffffffffffffffffffffffffffff168152602001868152602001858152602001848152602001600015158152602001600067ffffffffffffffff8111156110455761104461207d565b5b6040519080825280602002602001820160405280156110735781602001602082028036833780820191505090505b508152602001600073ffffffffffffffffffffffffffffffffffffffff16815250600560008360ff16815260200190815260200160002060008201518160000160006101000a81548160ff021916908360ff16021790555060208201518160000160016101000a81548173ffffffffffffffffffffffffffffffffffffffff021916908373ffffffffffffffffffffffffffffffffffffffff160217905550604082015181600101908161112791906128ef565b50606082015181600201908161113d91906128ef565b506080820151816003015560a08201518160040160006101000a81548160ff02191690831515021790555060c08201518160050190805190602001906111849291906119f2565b5060e08201518160060160006101000a81548173ffffffffffffffffffffffffffffffffffffffff021916908373ffffffffffffffffffffffffffffffffffffffff1602179055509050507fb63f0fdfb200b05c8b95fb4dcf8f8abd30f0b6884d532792e705afab4f37380a81866040516112009291906129f2565b60405180910390a15050505050565b60008054906101000a900473ffffffffffffffffffffffffffffffffffffffff1681565b6004818154811061124357600080fd5b906000526020600020016000915054906101000a900473ffffffffffffffffffffffffffffffffffffffff1681565b6060600060149054906101000a900460ff1660ff1667ffffffffffffffff8111156112a05761129f61207d565b5b6040519080825280602002602001820160405280156112d957816020015b6112c661197c565b8152602001906001900390816112be5790505b50905060005b600060149054906101000a900460ff1660ff168110156115f5576005600060018361130a9190612a22565b8152602001908152602001600020604051806101000160405290816000820160009054906101000a900460ff1660ff1660ff1681526020016000820160019054906101000a900473ffffffffffffffffffffffffffffffffffffffff1673ffffffffffffffffffffffffffffffffffffffff1673ffffffffffffffffffffffffffffffffffffffff1681526020016001820180546113a79061241f565b80601f01602080910402602001604051908101604052809291908181526020018280546113d39061241f565b80156114205780601f106113f557610100808354040283529160200191611420565b820191906000526020600020905b81548152906001019060200180831161140357829003601f168201915b505050505081526020016002820180546114399061241f565b80601f01602080910402602001604051908101604052809291908181526020018280546114659061241f565b80156114b25780601f10611487576101008083540402835291602001916114b2565b820191906000526020600020905b81548152906001019060200180831161149557829003601f168201915b50505050508152602001600382015481526020016004820160009054906101000a900460ff161515151581526020016005820180548060200260200160405190810160405280929190818152602001828054801561156557602002820191906000526020600020905b8160009054906101000a900473ffffffffffffffffffffffffffffffffffffffff1673ffffffffffffffffffffffffffffffffffffffff168152602001906001019080831161151b575b505050505081526020016006820160009054906101000a900473ffffffffffffffffffffffffffffffffffffffff1673ffffffffffffffffffffffffffffffffffffffff1673ffffffffffffffffffffffffffffffffffffffff16815250508282815181106115d7576115d6612a56565b5b602002602001018190525080806115ed9061269b565b9150506112df565b5090565b600060149054906101000a900460ff1660ff16811115801561161b5750600081115b61165a576040517f08c379a000000000000000000000000000000000000000000000000000000000815260040161165190612574565b60405180910390fd5b6000600560008381526020019081526020016000209050600073ffffffffffffffffffffffffffffffffffffffff168160000160019054906101000a900473ffffffffffffffffffffffffffffffffffffffff1673ffffffffffffffffffffffffffffffffffffffff1603611704576040517f08c379a00000000000000000000000000000000000000000000000000000000081526004016116fb906125e0565b60405180910390fd5b600073ffffffffffffffffffffffffffffffffffffffff163373ffffffffffffffffffffffffffffffffffffffff1603611773576040517f08c379a000000000000000000000000000000000000000000000000000000000815260040161176a90612ad1565b60405180910390fd5b60005b8160050180549050811015611846573373ffffffffffffffffffffffffffffffffffffffff168260050182815481106117b2576117b1612a56565b5b9060005260206000200160009054906101000a900473ffffffffffffffffffffffffffffffffffffffff1673ffffffffffffffffffffffffffffffffffffffff1603611833576040517f08c379a000000000000000000000000000000000000000000000000000000000815260040161182a90612b3d565b60405180910390fd5b808061183e9061269b565b915050611776565b5080600501339080600181540180825580915050600190039060005260206000200160009091909190916101000a81548173ffffffffffffffffffffffffffffffffffffffff021916908373ffffffffffffffffffffffffffffffffffffffff1602179055507f2b443803772f6da2db17c7357119f932841870fdf0a3a5d8ca9d2e112bb13326828260000160019054906101000a900473ffffffffffffffffffffffffffffffffffffffff163360405161190393929190612b5d565b60405180910390a15050565b60008173ffffffffffffffffffffffffffffffffffffffff168360060160009054906101000a900473ffffffffffffffffffffffffffffffffffffffff1673ffffffffffffffffffffffffffffffffffffffff16036119715760019050611976565b600090505b92915050565b604051806101000160405280600060ff168152602001600073ffffffffffffffffffffffffffffffffffffffff16815260200160608152602001606081526020016000815260200160001515815260200160608152602001600073ffffffffffffffffffffffffffffffffffffffff1681525090565b828054828255906000526020600020908101928215611a6b579160200282015b82811115611a6a5782518260006101000a81548173ffffffffffffffffffffffffffffffffffffffff021916908373ffffffffffffffffffffffffffffffffffffffff16021790555091602001919060010190611a12565b5b509050611a789190611a7c565b5090565b5b80821115611a95576000816000905550600101611a7d565b5090565b6000604051905090565b600080fd5b600080fd5b600073ffffffffffffffffffffffffffffffffffffffff82169050919050565b6000611ad882611aad565b9050919050565b611ae881611acd565b8114611af357600080fd5b50565b600081359050611b0581611adf565b92915050565b600060208284031215611b2157611b20611aa3565b5b6000611b2f84828501611af6565b91505092915050565b611b4181611acd565b82525050565b600081519050919050565b600082825260208201905092915050565b60005b83811015611b81578082015181840152602081019050611b66565b60008484015250505050565b6000601f19601f8301169050919050565b6000611ba982611b47565b611bb38185611b52565b9350611bc3818560208601611b63565b611bcc81611b8d565b840191505092915050565b6000819050919050565b611bea81611bd7565b82525050565b60008115159050919050565b611c0581611bf0565b82525050565b600061010082019050611c21600083018b611b38565b8181036020830152611c33818a611b9e565b90508181036040830152611c478189611b9e565b9050611c566060830188611be1565b8181036080830152611c688187611b9e565b905081810360a0830152611c7c8186611b9e565b9050611c8b60c0830185611bfc565b611c9860e0830184611be1565b9998505050505050505050565b6000602082019050611cba6000830184611be1565b92915050565b600060ff82169050919050565b611cd681611cc0565b82525050565b6000602082019050611cf16000830184611ccd565b92915050565b600061016082019050611d0d600083018e611b38565b8181036020830152611d1f818d611b9e565b90508181036040830152611d33818c611b9e565b9050611d42606083018b611be1565b8181036080830152611d54818a611b9e565b905081810360a0830152611d688189611b9e565b905081810360c0830152611d7c8188611b9e565b9050611d8b60e0830187611be1565b611d99610100830186611bfc565b611da7610120830185611be1565b611db5610140830184611be1565b9c9b505050505050505050505050565b611dce81611bd7565b8114611dd957600080fd5b50565b600081359050611deb81611dc5565b92915050565b600060208284031215611e0757611e06611aa3565b5b6000611e1584828501611ddc565b91505092915050565b611e2781611cc0565b82525050565b611e3681611acd565b82525050565b600082825260208201905092915050565b6000611e5882611b47565b611e628185611e3c565b9350611e72818560208601611b63565b611e7b81611b8d565b840191505092915050565b611e8f81611bd7565b82525050565b611e9e81611bf0565b82525050565b600081519050919050565b600082825260208201905092915050565b6000819050602082019050919050565b6000611edc8383611e2d565b60208301905092915050565b6000602082019050919050565b6000611f0082611ea4565b611f0a8185611eaf565b9350611f1583611ec0565b8060005b83811015611f46578151611f2d8882611ed0565b9750611f3883611ee8565b925050600181019050611f19565b5085935050505092915050565b600061010083016000830151611f6c6000860182611e1e565b506020830151611f7f6020860182611e2d565b5060408301518482036040860152611f978282611e4d565b91505060608301518482036060860152611fb18282611e4d565b9150506080830151611fc66080860182611e86565b5060a0830151611fd960a0860182611e95565b5060c083015184820360c0860152611ff18282611ef5565b91505060e083015161200660e0860182611e2d565b508091505092915050565b6000602082019050818103600083015261202b8184611f53565b905092915050565b6000806040838503121561204a57612049611aa3565b5b600061205885828601611ddc565b925050602061206985828601611af6565b9150509250929050565b600080fd5b600080fd5b7f4e487b7100000000000000000000000000000000000000000000000000000000600052604160045260246000fd5b6120b582611b8d565b810181811067ffffffffffffffff821117156120d4576120d361207d565b5b80604052505050565b60006120e7611a99565b90506120f382826120ac565b919050565b600067ffffffffffffffff8211156121135761211261207d565b5b61211c82611b8d565b9050602081019050919050565b82818337600083830152505050565b600061214b612146846120f8565b6120dd565b90508281526020810184848401111561216757612166612078565b5b612172848285612129565b509392505050565b600082601f83011261218f5761218e612073565b5b813561219f848260208601612138565b91505092915050565b6000806000606084860312156121c1576121c0611aa3565b5b600084013567ffffffffffffffff8111156121df576121de611aa8565b5b6121eb8682870161217a565b935050602084013567ffffffffffffffff81111561220c5761220b611aa8565b5b6122188682870161217a565b925050604061222986828701611ddc565b9150509250925092565b60006020820190506122486000830184611b38565b92915050565b600081519050919050565b600082825260208201905092915050565b6000819050602082019050919050565b6000610100830160008301516122936000860182611e1e565b5060208301516122a66020860182611e2d565b50604083015184820360408601526122be8282611e4d565b915050606083015184820360608601526122d88282611e4d565b91505060808301516122ed6080860182611e86565b5060a083015161230060a0860182611e95565b5060c083015184820360c08601526123188282611ef5565b91505060e083015161232d60e0860182611e2d565b508091505092915050565b6000612344838361227a565b905092915050565b6000602082019050919050565b60006123648261224e565b61236e8185612259565b9350836020820285016123808561226a565b8060005b858110156123bc578484038952815161239d8582612338565b94506123a88361234c565b925060208a01995050600181019050612384565b50829750879550505050505092915050565b600060208201905081810360008301526123e88184612359565b905092915050565b7f4e487b7100000000000000000000000000000000000000000000000000000000600052602260045260246000fd5b6000600282049050600182168061243757607f821691505b60208210810361244a576124496123f0565b5b50919050565b7f494a000000000000000000000000000000000000000000000000000000000000600082015250565b6000612486600283611b52565b915061249182612450565b602082019050919050565b600060208201905081810360008301526124b581612479565b9050919050565b7f4f45460000000000000000000000000000000000000000000000000000000000600082015250565b60006124f2600383611b52565b91506124fd826124bc565b602082019050919050565b60006020820190508181036000830152612521816124e5565b9050919050565b7f4a44450000000000000000000000000000000000000000000000000000000000600082015250565b600061255e600383611b52565b915061256982612528565b602082019050919050565b6000602082019050818103600083015261258d81612551565b9050919050565b7f4a4e460000000000000000000000000000000000000000000000000000000000600082015250565b60006125ca600383611b52565b91506125d582612594565b602082019050919050565b600060208201905081810360008301526125f9816125bd565b9050919050565b7f464e480000000000000000000000000000000000000000000000000000000000600082015250565b6000612636600383611b52565b915061264182612600565b602082019050919050565b6000602082019050818103600083015261266581612629565b9050919050565b7f4e487b7100000000000000000000000000000000000000000000000000000000600052601160045260246000fd5b60006126a682611bd7565b91507fffffffffffffffffffffffffffffffffffffffffffffffffffffffffffffffff82036126d8576126d761266c565b5b600182019050919050565b60006060820190506126f86000830186611be1565b6127056020830185611b38565b6127126040830184611be1565b949350505050565b600061272582611cc0565b915060ff82036127385761273761266c565b5b600182019050919050565b60008190508160005260206000209050919050565b60006020601f8301049050919050565b600082821b905092915050565b6000600883026127a57fffffffffffffffffffffffffffffffffffffffffffffffffffffffffffffffff82612768565b6127af8683612768565b95508019841693508086168417925050509392505050565b6000819050919050565b60006127ec6127e76127e284611bd7565b6127c7565b611bd7565b9050919050565b6000819050919050565b612806836127d1565b61281a612812826127f3565b848454612775565b825550505050565b600090565b61282f612822565b61283a8184846127fd565b505050565b5b8181101561285e57612853600082612827565b600181019050612840565b5050565b601f8211156128a35761287481612743565b61287d84612758565b8101602085101561288c578190505b6128a061289885612758565b83018261283f565b50505b505050565b600082821c905092915050565b60006128c6600019846008026128a8565b1980831691505092915050565b60006128df83836128b5565b9150826002028217905092915050565b6128f882611b47565b67ffffffffffffffff8111156129115761291061207d565b5b61291b825461241f565b612926828285612862565b600060209050601f8311600181146129595760008415612947578287015190505b61295185826128d3565b8655506129b9565b601f19841661296786612743565b60005b8281101561298f5784890151825560018201915060208501945060208101905061296a565b868310156129ac57848901516129a8601f8916826128b5565b8355505b6001600288020188555050505b505050505050565b60006129dc6129d76129d284611cc0565b6127c7565b611bd7565b9050919050565b6129ec816129c1565b82525050565b6000604082019050612a0760008301856129e3565b8181036020830152612a198184611b9e565b90509392505050565b6000612a2d82611bd7565b9150612a3883611bd7565b9250828201905080821115612a5057612a4f61266c565b5b92915050565b7f4e487b7100000000000000000000000000000000000000000000000000000000600052603260045260246000fd5b7f49412e0000000000000000000000000000000000000000000000000000000000600082015250565b6000612abb600383611b52565b9150612ac682612a85565b602082019050919050565b60006020820190508181036000830152612aea81612aae565b9050919050565b7f5948410000000000000000000000000000000000000000000000000000000000600082015250565b6000612b27600383611b52565b9150612b3282612af1565b602082019050919050565b60006020820190508181036000830152612b5681612b1a565b9050919050565b6000606082019050612b726000830186611be1565b612b7f6020830185611b38565b612b8c6040830184611b38565b94935050505056fea2646970667358221220ce44c1b09f3c8764fc7304480f81828527e116aecbc21a787a52744af441079064736f6c63430008140033",
  "linkReferences": {},
  "deployedLinkReferences": {}
}