{
  "_format": "hh-sol-artifact-1",
  "contractName": "Employers",
  "sourceName": "contracts/Employer.sol",
  "abi": [
    {
      "anonymous": false,
      "inputs": [
        {
          "indexed": false,
          "internalType": "uint256",
          "name": "jobId",
          "type": "uint256"
        },
        {
          "indexed": false,
          "internalType": "address",
          "name": "employerAddress",
          "type": "address"
        },
        {
          "indexed": false,
          "internalType": "address",
          "name": "freelancerAddress",
          "type": "address"
        }
      ],
      "name": "AppliedForJob",
      "type": "event"
    },
    {
      "anonymous": false,
      "inputs": [
        {
          "indexed": false,
          "internalType": "address",
          "name": "EmployerAddress",
          "type": "address"
        },
        {
          "indexed": false,
          "internalType": "string",
          "name": "name",
          "type": "string"
        }
      ],
      "name": "EmployerRegistered",
      "type": "event"
    },
    {
      "anonymous": false,
      "inputs": [
        {
          "indexed": false,
          "internalType": "address",
          "name": "freelancerAddress",
          "type": "address"
        },
        {
          "indexed": false,
          "internalType": "string[]",
          "name": "name",
          "type": "string[]"
        },
        {
          "indexed": false,
          "internalType": "uint256",
          "name": "amount",
          "type": "uint256"
        }
      ],
      "name": "FreelancerRegistered",
      "type": "event"
    },
    {
      "anonymous": false,
      "inputs": [
        {
          "indexed": false,
          "internalType": "uint256",
          "name": "jobId",
          "type": "uint256"
        },
        {
          "indexed": false,
          "internalType": "address",
          "name": "sender",
          "type": "address"
        },
        {
          "indexed": false,
          "internalType": "uint256",
          "name": "amount",
          "type": "uint256"
        }
      ],
      "name": "FundsDeposited",
      "type": "event"
    },
    {
      "anonymous": false,
      "inputs": [
        {
          "indexed": false,
          "internalType": "uint256",
          "name": "jobId",
          "type": "uint256"
        },
        {
          "indexed": false,
          "internalType": "address",
          "name": "freelancerAddress",
          "type": "address"
        },
        {
          "indexed": false,
          "internalType": "uint256",
          "name": "amount",
          "type": "uint256"
        }
      ],
      "name": "FundsReleased",
      "type": "event"
    },
    {
      "anonymous": false,
      "inputs": [
        {
          "indexed": false,
          "internalType": "uint256",
          "name": "jobId",
          "type": "uint256"
        },
        {
          "indexed": false,
          "internalType": "address",
          "name": "freelancerAddress",
          "type": "address"
        },
        {
          "indexed": false,
          "internalType": "uint256",
          "name": "payment",
          "type": "uint256"
        }
      ],
      "name": "JobCompleted",
      "type": "event"
    },
    {
      "anonymous": false,
      "inputs": [
        {
          "indexed": false,
          "internalType": "uint256",
          "name": "jobId",
          "type": "uint256"
        },
        {
          "indexed": false,
          "internalType": "string",
          "name": "title",
          "type": "string"
        }
      ],
      "name": "JobCreated",
      "type": "event"
    },
    {
      "anonymous": false,
      "inputs": [
        {
          "indexed": false,
          "internalType": "address",
          "name": "freelancer",
          "type": "address"
        },
        {
          "indexed": false,
          "internalType": "uint256",
          "name": "amount",
          "type": "uint256"
        }
      ],
      "name": "WithdrawFund",
      "type": "event"
    },
    {
      "inputs": [
        {
          "internalType": "uint256",
          "name": "",
          "type": "uint256"
        }
      ],
      "name": "allFreelancerAddresses",
      "outputs": [
        {
          "internalType": "address",
          "name": "",
          "type": "address"
        }
      ],
      "stateMutability": "view",
      "type": "function"
    },
    {
      "inputs": [],
      "name": "allJobs",
      "outputs": [
        {
          "components": [
            {
              "internalType": "uint8",
              "name": "id",
              "type": "uint8"
            },
            {
              "internalType": "address",
              "name": "employer",
              "type": "address"
            },
            {
              "internalType": "string",
              "name": "title",
              "type": "string"
            },
            {
              "internalType": "string",
              "name": "description",
              "type": "string"
            },
            {
              "internalType": "uint256",
              "name": "budget",
              "type": "uint256"
            },
            {
              "internalType": "bool",
              "name": "completed",
              "type": "bool"
            },
            {
              "internalType": "address[]",
              "name": "applicants",
              "type": "address[]"
            },
            {
              "internalType": "address",
              "name": "hiredFreelancer",
              "type": "address"
            }
          ],
          "internalType": "struct Djob.Job[]",
          "name": "props",
          "type": "tuple[]"
        }
      ],
      "stateMutability": "view",
      "type": "function"
    },
    {
      "inputs": [
        {
          "internalType": "uint256",
          "name": "jobId",
          "type": "uint256"
        }
      ],
      "name": "applyForJob",
      "outputs": [],
      "stateMutability": "nonpayable",
      "type": "function"
    },
    {
      "inputs": [
        {
          "internalType": "uint256",
          "name": "jobId",
          "type": "uint256"
        },
        {
          "internalType": "address",
          "name": "freelancerAddress",
          "type": "address"
        }
      ],
      "name": "completeJob",
      "outputs": [],
      "stateMutability": "nonpayable",
      "type": "function"
    },
    {
      "inputs": [
        {
          "internalType": "string",
          "name": "_title",
          "type": "string"
        },
        {
          "internalType": "string",
          "name": "_description",
          "type": "string"
        },
        {
          "internalType": "uint256",
          "name": "_budget",
          "type": "uint256"
        }
      ],
      "name": "createJob",
      "outputs": [],
      "stateMutability": "nonpayable",
      "type": "function"
    },
    {
      "inputs": [
        {
          "internalType": "address",
          "name": "",
          "type": "address"
        }
      ],
      "name": "employers",
      "outputs": [
        {
          "internalType": "address",
          "name": "employerAddress",
          "type": "address"
        },
        {
          "internalType": "string",
          "name": "name",
          "type": "string"
        },
        {
          "internalType": "string",
          "name": "industry",
          "type": "string"
        },
        {
          "internalType": "uint256",
          "name": "balance",
          "type": "uint256"
        },
        {
          "internalType": "string",
          "name": "country",
          "type": "string"
        },
        {
          "internalType": "string",
          "name": "image",
          "type": "string"
        },
        {
          "internalType": "bool",
          "name": "registered",
          "type": "bool"
        },
        {
          "internalType": "uint256",
          "name": "registration_date",
          "type": "uint256"
        }
      ],
      "stateMutability": "view",
      "type": "function"
    },
    {
      "inputs": [
        {
          "internalType": "address",
          "name": "",
          "type": "address"
        }
      ],
      "name": "freelancers",
      "outputs": [
        {
          "internalType": "address",
          "name": "freelancerAddress",
          "type": "address"
        },
        {
          "internalType": "string",
          "name": "name",
          "type": "string"
        },
        {
          "internalType": "string",
          "name": "skills",
          "type": "string"
        },
        {
          "internalType": "uint256",
          "name": "balance",
          "type": "uint256"
        },
        {
          "internalType": "string",
          "name": "country",
          "type": "string"
        },
        {
          "internalType": "string",
          "name": "gigTitle",
          "type": "string"
        },
        {
          "internalType": "string",
          "name": "gitDescription",
          "type": "string"
        },
        {
          "internalType": "uint256",
          "name": "jobsCompleted",
          "type": "uint256"
        },
        {
          "internalType": "bool",
          "name": "registered",
          "type": "bool"
        },
        {
          "internalType": "uint256",
          "name": "registration_date",
          "type": "uint256"
        },
        {
          "internalType": "uint256",
          "name": "starting_price",
          "type": "uint256"
        }
      ],
      "stateMutability": "view",
      "type": "function"
    },
    {
      "inputs": [
        {
          "internalType": "address",
          "name": "_employer",
          "type": "address"
        }
      ],
      "name": "getEmployerByAddress",
      "outputs": [
        {
          "components": [
            {
              "internalType": "address",
              "name": "employerAddress",
              "type": "address"
            },
            {
              "internalType": "string",
              "name": "name",
              "type": "string"
            },
            {
              "internalType": "string",
              "name": "industry",
              "type": "string"
            },
            {
              "internalType": "uint256",
              "name": "balance",
              "type": "uint256"
            },
            {
              "internalType": "string",
              "name": "country",
              "type": "string"
            },
            {
              "internalType": "string",
              "name": "image",
              "type": "string"
            },
            {
              "internalType": "bool",
              "name": "registered",
              "type": "bool"
            },
            {
              "internalType": "uint256",
              "name": "registration_date",
              "type": "uint256"
            }
          ],
          "internalType": "struct Djob.Employer",
          "name": "props",
          "type": "tuple"
        }
      ],
      "stateMutability": "view",
      "type": "function"
    },
    {
      "inputs": [
        {
          "internalType": "address",
          "name": "_employer",
          "type": "address"
        },
        {
          "internalType": "uint256",
          "name": "_job_id",
          "type": "uint256"
        }
      ],
      "name": "getEmployerEscrow",
      "outputs": [
        {
          "internalType": "uint256",
          "name": "",
          "type": "uint256"
        }
      ],
      "stateMutability": "view",
      "type": "function"
    },
    {
      "inputs": [
        {
          "internalType": "uint256",
          "name": "jobId",
          "type": "uint256"
        }
      ],
      "name": "getJobByID",
      "outputs": [
        {
          "components": [
            {
              "internalType": "uint8",
              "name": "id",
              "type": "uint8"
            },
            {
              "internalType": "address",
              "name": "employer",
              "type": "address"
            },
            {
              "internalType": "string",
              "name": "title",
              "type": "string"
            },
            {
              "internalType": "string",
              "name": "description",
              "type": "string"
            },
            {
              "internalType": "uint256",
              "name": "budget",
              "type": "uint256"
            },
            {
              "internalType": "bool",
              "name": "completed",
              "type": "bool"
            },
            {
              "internalType": "address[]",
              "name": "applicants",
              "type": "address[]"
            },
            {
              "internalType": "address",
              "name": "hiredFreelancer",
              "type": "address"
            }
          ],
          "internalType": "struct Djob.Job",
          "name": "props",
          "type": "tuple"
        }
      ],
      "stateMutability": "view",
      "type": "function"
    },
    {
      "inputs": [
        {
          "internalType": "uint256",
          "name": "jobId",
          "type": "uint256"
        },
        {
          "internalType": "address",
          "name": "freelancerAddress",
          "type": "address"
        }
      ],
      "name": "hireFreelancer",
      "outputs": [],
      "stateMutability": "nonpayable",
      "type": "function"
    },
    {
      "inputs": [],
      "name": "owner",
      "outputs": [
        {
          "internalType": "address",
          "name": "",
          "type": "address"
        }
      ],
      "stateMutability": "view",
      "type": "function"
    },
    {
      "inputs": [
        {
          "internalType": "string",
          "name": "_name",
          "type": "string"
        },
        {
          "internalType": "string",
          "name": "_industry",
          "type": "string"
        },
        {
          "internalType": "string",
          "name": "_country",
          "type": "string"
        },
        {
          "internalType": "string",
          "name": "_imageURI",
          "type": "string"
        }
      ],
      "name": "registerEmployer",
      "outputs": [],
      "stateMutability": "nonpayable",
      "type": "function"
    },
    {
      "inputs": [],
      "name": "totalCompletedJobs",
      "outputs": [
        {
          "internalType": "uint256",
          "name": "",
          "type": "uint256"
        }
      ],
      "stateMutability": "view",
      "type": "function"
    },
    {
      "inputs": [],
      "name": "totalEmployers",
      "outputs": [
        {
          "internalType": "uint256",
          "name": "",
          "type": "uint256"
        }
      ],
      "stateMutability": "view",
      "type": "function"
    },
    {
      "inputs": [],
      "name": "totalFreelancers",
      "outputs": [
        {
          "internalType": "uint256",
          "name": "",
          "type": "uint256"
        }
      ],
      "stateMutability": "view",
      "type": "function"
    },
    {
      "inputs": [],
      "name": "totalJobs",
      "outputs": [
        {
          "internalType": "uint8",
          "name": "",
          "type": "uint8"
        }
      ],
      "stateMutability": "view",
      "type": "function"
    }
  ],
  "bytecode": "0x608060405234801561001057600080fd5b50336000806101000a81548173ffffffffffffffffffffffffffffffffffffffff021916908373ffffffffffffffffffffffffffffffffffffffff1602179055506138d0806100606000396000f3fe608060405234801561001057600080fd5b506004361061010b5760003560e01c80636a6b67d1116100a2578063b0f26f1811610071578063b0f26f18146102cb578063c27a9dd4146102e7578063c8d1b6aa14610317578063dfac8ce514610335578063e0c94ae5146103655761010b565b80636a6b67d11461024557806373a06f42146102615780637a7871251461027d5780638da5cb5b146102ad5761010b565b80631ace87b3116100de5780631ace87b31461019f57806321bd6693146101bd578063371ae9f4146101f75780635e586eb1146102275761010b565b80630be435bd146101105780630e553442146101475780631033397b146101635780631906b4ce14610181575b600080fd5b61012a6004803603810190610125919061249f565b610381565b60405161013e98979695949392919061259f565b60405180910390f35b610161600480360381019061015c919061276e565b610616565b005b61016b610888565b6040516101789190612845565b60405180910390f35b61018961088e565b6040516101969190612845565b60405180910390f35b6101a7610894565b6040516101b4919061287c565b60405180910390f35b6101d760048036038101906101d2919061249f565b6108a7565b6040516101ee9b9a99989796959493929190612897565b60405180910390f35b610211600480360381019061020c9190612991565b610bd6565b60405161021e9190612bb1565b60405180910390f35b61022f610f05565b60405161023c9190612845565b60405180910390f35b61025f600480360381019061025a9190612bd3565b610f0b565b005b61027b60048036038101906102769190612c13565b611208565b005b6102976004803603810190610292919061249f565b611555565b6040516102a49190612d63565b60405180910390f35b6102b561187c565b6040516102c29190612d85565b60405180910390f35b6102e560048036038101906102e09190612bd3565b6118a0565b005b61030160048036038101906102fc9190612991565b611b0f565b60405161030e9190612d85565b60405180910390f35b61031f611b4e565b60405161032c9190612f20565b60405180910390f35b61034f600480360381019061034a9190612f42565b611ed5565b60405161035c9190612845565b60405180910390f35b61037f600480360381019061037a9190612991565b611f30565b005b60076020528060005260406000206000915090508060000160009054906101000a900473ffffffffffffffffffffffffffffffffffffffff16908060010180546103ca90612fb1565b80601f01602080910402602001604051908101604052809291908181526020018280546103f690612fb1565b80156104435780601f1061041857610100808354040283529160200191610443565b820191906000526020600020905b81548152906001019060200180831161042657829003601f168201915b50505050509080600201805461045890612fb1565b80601f016020809104026020016040519081016040528092919081815260200182805461048490612fb1565b80156104d15780601f106104a6576101008083540402835291602001916104d1565b820191906000526020600020905b8154815290600101906020018083116104b457829003601f168201915b5050505050908060030154908060040180546104ec90612fb1565b80601f016020809104026020016040519081016040528092919081815260200182805461051890612fb1565b80156105655780601f1061053a57610100808354040283529160200191610565565b820191906000526020600020905b81548152906001019060200180831161054857829003601f168201915b50505050509080600501805461057a90612fb1565b80601f01602080910402602001604051908101604052809291908181526020018280546105a690612fb1565b80156105f35780601f106105c8576101008083540402835291602001916105f3565b820191906000526020600020905b8154815290600101906020018083116105d657829003601f168201915b5050505050908060060160009054906101000a900460ff16908060070154905088565b60001515600760003373ffffffffffffffffffffffffffffffffffffffff1673ffffffffffffffffffffffffffffffffffffffff16815260200190815260200160002060060160009054906101000a900460ff161515146106ac576040517f08c379a00000000000000000000000000000000000000000000000000000000081526004016106a39061302e565b60405180910390fd5b60008451116106ba57600080fd5b60008351116106c857600080fd5b600260008154809291906106db9061307d565b91905055506040518061010001604052803373ffffffffffffffffffffffffffffffffffffffff1681526020018581526020018481526020016000815260200183815260200182815260200160011515815260200142815250600760003373ffffffffffffffffffffffffffffffffffffffff1673ffffffffffffffffffffffffffffffffffffffff16815260200190815260200160002060008201518160000160006101000a81548173ffffffffffffffffffffffffffffffffffffffff021916908373ffffffffffffffffffffffffffffffffffffffff16021790555060208201518160010190816107cf9190613271565b5060408201518160020190816107e59190613271565b506060820151816003015560808201518160040190816108059190613271565b5060a082015181600501908161081b9190613271565b5060c08201518160060160006101000a81548160ff02191690831515021790555060e082015181600701559050507f6c0e8aabac6898602e5264c9a24b2394d9895a70bd2f4c44c8ca0fcfcec6477f338560405161087a929190613343565b60405180910390a150505050565b60035481565b60025481565b600060149054906101000a900460ff1681565b60066020528060005260406000206000915090508060000160009054906101000a900473ffffffffffffffffffffffffffffffffffffffff16908060010180546108f090612fb1565b80601f016020809104026020016040519081016040528092919081815260200182805461091c90612fb1565b80156109695780601f1061093e57610100808354040283529160200191610969565b820191906000526020600020905b81548152906001019060200180831161094c57829003601f168201915b50505050509080600201805461097e90612fb1565b80601f01602080910402602001604051908101604052809291908181526020018280546109aa90612fb1565b80156109f75780601f106109cc576101008083540402835291602001916109f7565b820191906000526020600020905b8154815290600101906020018083116109da57829003601f168201915b505050505090806003015490806004018054610a1290612fb1565b80601f0160208091040260200160405190810160405280929190818152602001828054610a3e90612fb1565b8015610a8b5780601f10610a6057610100808354040283529160200191610a8b565b820191906000526020600020905b815481529060010190602001808311610a6e57829003601f168201915b505050505090806005018054610aa090612fb1565b80601f0160208091040260200160405190810160405280929190818152602001828054610acc90612fb1565b8015610b195780601f10610aee57610100808354040283529160200191610b19565b820191906000526020600020905b815481529060010190602001808311610afc57829003601f168201915b505050505090806006018054610b2e90612fb1565b80601f0160208091040260200160405190810160405280929190818152602001828054610b5a90612fb1565b8015610ba75780601f10610b7c57610100808354040283529160200191610ba7565b820191906000526020600020905b815481529060010190602001808311610b8a57829003601f168201915b5050505050908060080154908060090160009054906101000a900460ff169080600a01549080600b015490508b565b610bde6122b3565b600082118015610c005750600060149054906101000a900460ff1660ff168211155b610c3f576040517f08c379a0000000000000000000000000000000000000000000000000000000008152600401610c36906133bf565b60405180910390fd5b60056000838152602001908152602001600020604051806101000160405290816000820160009054906101000a900460ff1660ff1660ff1681526020016000820160019054906101000a900473ffffffffffffffffffffffffffffffffffffffff1673ffffffffffffffffffffffffffffffffffffffff1673ffffffffffffffffffffffffffffffffffffffff168152602001600182018054610ce190612fb1565b80601f0160208091040260200160405190810160405280929190818152602001828054610d0d90612fb1565b8015610d5a5780601f10610d2f57610100808354040283529160200191610d5a565b820191906000526020600020905b815481529060010190602001808311610d3d57829003601f168201915b50505050508152602001600282018054610d7390612fb1565b80601f0160208091040260200160405190810160405280929190818152602001828054610d9f90612fb1565b8015610dec5780601f10610dc157610100808354040283529160200191610dec565b820191906000526020600020905b815481529060010190602001808311610dcf57829003601f168201915b50505050508152602001600382015481526020016004820160009054906101000a900460ff1615151515815260200160058201805480602002602001604051908101604052809291908181526020018280548015610e9f57602002820191906000526020600020905b8160009054906101000a900473ffffffffffffffffffffffffffffffffffffffff1673ffffffffffffffffffffffffffffffffffffffff1681526020019060010190808311610e55575b505050505081526020016006820160009054906101000a900473ffffffffffffffffffffffffffffffffffffffff1673ffffffffffffffffffffffffffffffffffffffff1673ffffffffffffffffffffffffffffffffffffffff16815250509050919050565b60015481565b338073ffffffffffffffffffffffffffffffffffffffff16600760003373ffffffffffffffffffffffffffffffffffffffff1673ffffffffffffffffffffffffffffffffffffffff16815260200190815260200160002060000160009054906101000a900473ffffffffffffffffffffffffffffffffffffffff1673ffffffffffffffffffffffffffffffffffffffff1614610fdc576040517f08c379a0000000000000000000000000000000000000000000000000000000008152600401610fd39061342b565b60405180910390fd5b600060149054906101000a900460ff1660ff168311158015610ffe5750600083115b61103d576040517f08c379a000000000000000000000000000000000000000000000000000000000815260040161103490613497565b60405180910390fd5b6000600560008581526020019081526020016000209050600073ffffffffffffffffffffffffffffffffffffffff168160000160019054906101000a900473ffffffffffffffffffffffffffffffffffffffff1673ffffffffffffffffffffffffffffffffffffffff16036110e7576040517f08c379a00000000000000000000000000000000000000000000000000000000081526004016110de90613503565b60405180910390fd5b6110f18184612246565b611130576040517f08c379a00000000000000000000000000000000000000000000000000000000081526004016111279061356f565b60405180910390fd5b60008160030154905060018260040160006101000a81548160ff021916908315150217905550600360008154809291906111699061307d565b9190505550600660008573ffffffffffffffffffffffffffffffffffffffff1673ffffffffffffffffffffffffffffffffffffffff16815260200190815260200160002060080160008154809291906111c19061307d565b91905055507f4dbba472101e9f148a3a5ecbe793f0ee16a7efe4bf3f8cbfab5330e1642ef9558585836040516111f99392919061358f565b60405180910390a15050505050565b338073ffffffffffffffffffffffffffffffffffffffff16600760003373ffffffffffffffffffffffffffffffffffffffff1673ffffffffffffffffffffffffffffffffffffffff16815260200190815260200160002060000160009054906101000a900473ffffffffffffffffffffffffffffffffffffffff1673ffffffffffffffffffffffffffffffffffffffff16146112d9576040517f08c379a00000000000000000000000000000000000000000000000000000000081526004016112d09061342b565b60405180910390fd5b6000601481819054906101000a900460ff16809291906112f8906135c6565b91906101000a81548160ff021916908360ff1602179055505060008060149054906101000a900460ff1690506040518061010001604052808260ff1681526020013373ffffffffffffffffffffffffffffffffffffffff168152602001868152602001858152602001848152602001600015158152602001600067ffffffffffffffff81111561138b5761138a612643565b5b6040519080825280602002602001820160405280156113b95781602001602082028036833780820191505090505b508152602001600073ffffffffffffffffffffffffffffffffffffffff16815250600560008360ff16815260200190815260200160002060008201518160000160006101000a81548160ff021916908360ff16021790555060208201518160000160016101000a81548173ffffffffffffffffffffffffffffffffffffffff021916908373ffffffffffffffffffffffffffffffffffffffff160217905550604082015181600101908161146d9190613271565b5060608201518160020190816114839190613271565b506080820151816003015560a08201518160040160006101000a81548160ff02191690831515021790555060c08201518160050190805190602001906114ca929190612329565b5060e08201518160060160006101000a81548173ffffffffffffffffffffffffffffffffffffffff021916908373ffffffffffffffffffffffffffffffffffffffff1602179055509050507fb63f0fdfb200b05c8b95fb4dcf8f8abd30f0b6884d532792e705afab4f37380a8186604051611546929190613620565b60405180910390a15050505050565b61155d6123b3565b600760008373ffffffffffffffffffffffffffffffffffffffff1673ffffffffffffffffffffffffffffffffffffffff168152602001908152602001600020604051806101000160405290816000820160009054906101000a900473ffffffffffffffffffffffffffffffffffffffff1673ffffffffffffffffffffffffffffffffffffffff1673ffffffffffffffffffffffffffffffffffffffff16815260200160018201805461160e90612fb1565b80601f016020809104026020016040519081016040528092919081815260200182805461163a90612fb1565b80156116875780601f1061165c57610100808354040283529160200191611687565b820191906000526020600020905b81548152906001019060200180831161166a57829003601f168201915b505050505081526020016002820180546116a090612fb1565b80601f01602080910402602001604051908101604052809291908181526020018280546116cc90612fb1565b80156117195780601f106116ee57610100808354040283529160200191611719565b820191906000526020600020905b8154815290600101906020018083116116fc57829003601f168201915b505050505081526020016003820154815260200160048201805461173c90612fb1565b80601f016020809104026020016040519081016040528092919081815260200182805461176890612fb1565b80156117b55780601f1061178a576101008083540402835291602001916117b5565b820191906000526020600020905b81548152906001019060200180831161179857829003601f168201915b505050505081526020016005820180546117ce90612fb1565b80601f01602080910402602001604051908101604052809291908181526020018280546117fa90612fb1565b80156118475780601f1061181c57610100808354040283529160200191611847565b820191906000526020600020905b81548152906001019060200180831161182a57829003601f168201915b505050505081526020016006820160009054906101000a900460ff161515151581526020016007820154815250509050919050565b60008054906101000a900473ffffffffffffffffffffffffffffffffffffffff1681565b338073ffffffffffffffffffffffffffffffffffffffff16600760003373ffffffffffffffffffffffffffffffffffffffff1673ffffffffffffffffffffffffffffffffffffffff16815260200190815260200160002060000160009054906101000a900473ffffffffffffffffffffffffffffffffffffffff1673ffffffffffffffffffffffffffffffffffffffff1614611971576040517f08c379a00000000000000000000000000000000000000000000000000000000081526004016119689061342b565b60405180910390fd5b600060149054906101000a900460ff1660ff1683111580156119935750600083115b6119d2576040517f08c379a00000000000000000000000000000000000000000000000000000000081526004016119c99061369c565b60405180910390fd5b6000600560008581526020019081526020016000209050600073ffffffffffffffffffffffffffffffffffffffff168160000160019054906101000a900473ffffffffffffffffffffffffffffffffffffffff1673ffffffffffffffffffffffffffffffffffffffff1603611a7c576040517f08c379a0000000000000000000000000000000000000000000000000000000008152600401611a7390613503565b60405180910390fd5b611a868184612246565b15611ac6576040517f08c379a0000000000000000000000000000000000000000000000000000000008152600401611abd90613708565b60405180910390fd5b828160060160006101000a81548173ffffffffffffffffffffffffffffffffffffffff021916908373ffffffffffffffffffffffffffffffffffffffff16021790555050505050565b60048181548110611b1f57600080fd5b906000526020600020016000915054906101000a900473ffffffffffffffffffffffffffffffffffffffff1681565b6060600060149054906101000a900460ff1660ff1667ffffffffffffffff811115611b7c57611b7b612643565b5b604051908082528060200260200182016040528015611bb557816020015b611ba26122b3565b815260200190600190039081611b9a5790505b50905060005b600060149054906101000a900460ff1660ff16811015611ed15760056000600183611be69190613728565b8152602001908152602001600020604051806101000160405290816000820160009054906101000a900460ff1660ff1660ff1681526020016000820160019054906101000a900473ffffffffffffffffffffffffffffffffffffffff1673ffffffffffffffffffffffffffffffffffffffff1673ffffffffffffffffffffffffffffffffffffffff168152602001600182018054611c8390612fb1565b80601f0160208091040260200160405190810160405280929190818152602001828054611caf90612fb1565b8015611cfc5780601f10611cd157610100808354040283529160200191611cfc565b820191906000526020600020905b815481529060010190602001808311611cdf57829003601f168201915b50505050508152602001600282018054611d1590612fb1565b80601f0160208091040260200160405190810160405280929190818152602001828054611d4190612fb1565b8015611d8e5780601f10611d6357610100808354040283529160200191611d8e565b820191906000526020600020905b815481529060010190602001808311611d7157829003601f168201915b50505050508152602001600382015481526020016004820160009054906101000a900460ff1615151515815260200160058201805480602002602001604051908101604052809291908181526020018280548015611e4157602002820191906000526020600020905b8160009054906101000a900473ffffffffffffffffffffffffffffffffffffffff1673ffffffffffffffffffffffffffffffffffffffff1681526020019060010190808311611df7575b505050505081526020016006820160009054906101000a900473ffffffffffffffffffffffffffffffffffffffff1673ffffffffffffffffffffffffffffffffffffffff1673ffffffffffffffffffffffffffffffffffffffff1681525050828281518110611eb357611eb261375c565b5b60200260200101819052508080611ec99061307d565b915050611bbb565b5090565b6000600860008473ffffffffffffffffffffffffffffffffffffffff1673ffffffffffffffffffffffffffffffffffffffff168152602001908152602001600020600083815260200190815260200160002054905092915050565b600060149054906101000a900460ff1660ff168111158015611f525750600081115b611f91576040517f08c379a0000000000000000000000000000000000000000000000000000000008152600401611f8890613497565b60405180910390fd5b6000600560008381526020019081526020016000209050600073ffffffffffffffffffffffffffffffffffffffff168160000160019054906101000a900473ffffffffffffffffffffffffffffffffffffffff1673ffffffffffffffffffffffffffffffffffffffff160361203b576040517f08c379a000000000000000000000000000000000000000000000000000000000815260040161203290613503565b60405180910390fd5b600073ffffffffffffffffffffffffffffffffffffffff163373ffffffffffffffffffffffffffffffffffffffff16036120aa576040517f08c379a00000000000000000000000000000000000000000000000000000000081526004016120a1906137d7565b60405180910390fd5b60005b816005018054905081101561217d573373ffffffffffffffffffffffffffffffffffffffff168260050182815481106120e9576120e861375c565b5b9060005260206000200160009054906101000a900473ffffffffffffffffffffffffffffffffffffffff1673ffffffffffffffffffffffffffffffffffffffff160361216a576040517f08c379a000000000000000000000000000000000000000000000000000000000815260040161216190613843565b60405180910390fd5b80806121759061307d565b9150506120ad565b5080600501339080600181540180825580915050600190039060005260206000200160009091909190916101000a81548173ffffffffffffffffffffffffffffffffffffffff021916908373ffffffffffffffffffffffffffffffffffffffff1602179055507f2b443803772f6da2db17c7357119f932841870fdf0a3a5d8ca9d2e112bb13326828260000160019054906101000a900473ffffffffffffffffffffffffffffffffffffffff163360405161223a93929190613863565b60405180910390a15050565b60008173ffffffffffffffffffffffffffffffffffffffff168360060160009054906101000a900473ffffffffffffffffffffffffffffffffffffffff1673ffffffffffffffffffffffffffffffffffffffff16036122a857600190506122ad565b600090505b92915050565b604051806101000160405280600060ff168152602001600073ffffffffffffffffffffffffffffffffffffffff16815260200160608152602001606081526020016000815260200160001515815260200160608152602001600073ffffffffffffffffffffffffffffffffffffffff1681525090565b8280548282559060005260206000209081019282156123a2579160200282015b828111156123a15782518260006101000a81548173ffffffffffffffffffffffffffffffffffffffff021916908373ffffffffffffffffffffffffffffffffffffffff16021790555091602001919060010190612349565b5b5090506123af9190612410565b5090565b604051806101000160405280600073ffffffffffffffffffffffffffffffffffffffff1681526020016060815260200160608152602001600081526020016060815260200160608152602001600015158152602001600081525090565b5b80821115612429576000816000905550600101612411565b5090565b6000604051905090565b600080fd5b600080fd5b600073ffffffffffffffffffffffffffffffffffffffff82169050919050565b600061246c82612441565b9050919050565b61247c81612461565b811461248757600080fd5b50565b60008135905061249981612473565b92915050565b6000602082840312156124b5576124b4612437565b5b60006124c38482850161248a565b91505092915050565b6124d581612461565b82525050565b600081519050919050565b600082825260208201905092915050565b60005b838110156125155780820151818401526020810190506124fa565b60008484015250505050565b6000601f19601f8301169050919050565b600061253d826124db565b61254781856124e6565b93506125578185602086016124f7565b61256081612521565b840191505092915050565b6000819050919050565b61257e8161256b565b82525050565b60008115159050919050565b61259981612584565b82525050565b6000610100820190506125b5600083018b6124cc565b81810360208301526125c7818a612532565b905081810360408301526125db8189612532565b90506125ea6060830188612575565b81810360808301526125fc8187612532565b905081810360a08301526126108186612532565b905061261f60c0830185612590565b61262c60e0830184612575565b9998505050505050505050565b600080fd5b600080fd5b7f4e487b7100000000000000000000000000000000000000000000000000000000600052604160045260246000fd5b61267b82612521565b810181811067ffffffffffffffff8211171561269a57612699612643565b5b80604052505050565b60006126ad61242d565b90506126b98282612672565b919050565b600067ffffffffffffffff8211156126d9576126d8612643565b5b6126e282612521565b9050602081019050919050565b82818337600083830152505050565b600061271161270c846126be565b6126a3565b90508281526020810184848401111561272d5761272c61263e565b5b6127388482856126ef565b509392505050565b600082601f83011261275557612754612639565b5b81356127658482602086016126fe565b91505092915050565b6000806000806080858703121561278857612787612437565b5b600085013567ffffffffffffffff8111156127a6576127a561243c565b5b6127b287828801612740565b945050602085013567ffffffffffffffff8111156127d3576127d261243c565b5b6127df87828801612740565b935050604085013567ffffffffffffffff811115612800576127ff61243c565b5b61280c87828801612740565b925050606085013567ffffffffffffffff81111561282d5761282c61243c565b5b61283987828801612740565b91505092959194509250565b600060208201905061285a6000830184612575565b92915050565b600060ff82169050919050565b61287681612860565b82525050565b6000602082019050612891600083018461286d565b92915050565b6000610160820190506128ad600083018e6124cc565b81810360208301526128bf818d612532565b905081810360408301526128d3818c612532565b90506128e2606083018b612575565b81810360808301526128f4818a612532565b905081810360a08301526129088189612532565b905081810360c083015261291c8188612532565b905061292b60e0830187612575565b612939610100830186612590565b612947610120830185612575565b612955610140830184612575565b9c9b505050505050505050505050565b61296e8161256b565b811461297957600080fd5b50565b60008135905061298b81612965565b92915050565b6000602082840312156129a7576129a6612437565b5b60006129b58482850161297c565b91505092915050565b6129c781612860565b82525050565b6129d681612461565b82525050565b600082825260208201905092915050565b60006129f8826124db565b612a0281856129dc565b9350612a128185602086016124f7565b612a1b81612521565b840191505092915050565b612a2f8161256b565b82525050565b612a3e81612584565b82525050565b600081519050919050565b600082825260208201905092915050565b6000819050602082019050919050565b6000612a7c83836129cd565b60208301905092915050565b6000602082019050919050565b6000612aa082612a44565b612aaa8185612a4f565b9350612ab583612a60565b8060005b83811015612ae6578151612acd8882612a70565b9750612ad883612a88565b925050600181019050612ab9565b5085935050505092915050565b600061010083016000830151612b0c60008601826129be565b506020830151612b1f60208601826129cd565b5060408301518482036040860152612b3782826129ed565b91505060608301518482036060860152612b5182826129ed565b9150506080830151612b666080860182612a26565b5060a0830151612b7960a0860182612a35565b5060c083015184820360c0860152612b918282612a95565b91505060e0830151612ba660e08601826129cd565b508091505092915050565b60006020820190508181036000830152612bcb8184612af3565b905092915050565b60008060408385031215612bea57612be9612437565b5b6000612bf88582860161297c565b9250506020612c098582860161248a565b9150509250929050565b600080600060608486031215612c2c57612c2b612437565b5b600084013567ffffffffffffffff811115612c4a57612c4961243c565b5b612c5686828701612740565b935050602084013567ffffffffffffffff811115612c7757612c7661243c565b5b612c8386828701612740565b9250506040612c948682870161297c565b9150509250925092565b600061010083016000830151612cb760008601826129cd565b5060208301518482036020860152612ccf82826129ed565b91505060408301518482036040860152612ce982826129ed565b9150506060830151612cfe6060860182612a26565b5060808301518482036080860152612d1682826129ed565b91505060a083015184820360a0860152612d3082826129ed565b91505060c0830151612d4560c0860182612a35565b5060e0830151612d5860e0860182612a26565b508091505092915050565b60006020820190508181036000830152612d7d8184612c9e565b905092915050565b6000602082019050612d9a60008301846124cc565b92915050565b600081519050919050565b600082825260208201905092915050565b6000819050602082019050919050565b600061010083016000830151612de560008601826129be565b506020830151612df860208601826129cd565b5060408301518482036040860152612e1082826129ed565b91505060608301518482036060860152612e2a82826129ed565b9150506080830151612e3f6080860182612a26565b5060a0830151612e5260a0860182612a35565b5060c083015184820360c0860152612e6a8282612a95565b91505060e0830151612e7f60e08601826129cd565b508091505092915050565b6000612e968383612dcc565b905092915050565b6000602082019050919050565b6000612eb682612da0565b612ec08185612dab565b935083602082028501612ed285612dbc565b8060005b85811015612f0e5784840389528151612eef8582612e8a565b9450612efa83612e9e565b925060208a01995050600181019050612ed6565b50829750879550505050505092915050565b60006020820190508181036000830152612f3a8184612eab565b905092915050565b60008060408385031215612f5957612f58612437565b5b6000612f678582860161248a565b9250506020612f788582860161297c565b9150509250929050565b7f4e487b7100000000000000000000000000000000000000000000000000000000600052602260045260246000fd5b60006002820490506001821680612fc957607f821691505b602082108103612fdc57612fdb612f82565b5b50919050565b7f4152000000000000000000000000000000000000000000000000000000000000600082015250565b60006130186002836124e6565b915061302382612fe2565b602082019050919050565b600060208201905081810360008301526130478161300b565b9050919050565b7f4e487b7100000000000000000000000000000000000000000000000000000000600052601160045260246000fd5b60006130888261256b565b91507fffffffffffffffffffffffffffffffffffffffffffffffffffffffffffffffff82036130ba576130b961304e565b5b600182019050919050565b60008190508160005260206000209050919050565b60006020601f8301049050919050565b600082821b905092915050565b6000600883026131277fffffffffffffffffffffffffffffffffffffffffffffffffffffffffffffffff826130ea565b61313186836130ea565b95508019841693508086168417925050509392505050565b6000819050919050565b600061316e6131696131648461256b565b613149565b61256b565b9050919050565b6000819050919050565b61318883613153565b61319c61319482613175565b8484546130f7565b825550505050565b600090565b6131b16131a4565b6131bc81848461317f565b505050565b5b818110156131e0576131d56000826131a9565b6001810190506131c2565b5050565b601f821115613225576131f6816130c5565b6131ff846130da565b8101602085101561320e578190505b61322261321a856130da565b8301826131c1565b50505b505050565b600082821c905092915050565b60006132486000198460080261322a565b1980831691505092915050565b60006132618383613237565b9150826002028217905092915050565b61327a826124db565b67ffffffffffffffff81111561329357613292612643565b5b61329d8254612fb1565b6132a88282856131e4565b600060209050601f8311600181146132db57600084156132c9578287015190505b6132d38582613255565b86555061333b565b601f1984166132e9866130c5565b60005b82811015613311578489015182556001820191506020850194506020810190506132ec565b8683101561332e578489015161332a601f891682613237565b8355505b6001600288020188555050505b505050505050565b600060408201905061335860008301856124cc565b818103602083015261336a8184612532565b90509392505050565b7f494a000000000000000000000000000000000000000000000000000000000000600082015250565b60006133a96002836124e6565b91506133b482613373565b602082019050919050565b600060208201905081810360008301526133d88161339c565b9050919050565b7f4f45460000000000000000000000000000000000000000000000000000000000600082015250565b60006134156003836124e6565b9150613420826133df565b602082019050919050565b6000602082019050818103600083015261344481613408565b9050919050565b7f4a44450000000000000000000000000000000000000000000000000000000000600082015250565b60006134816003836124e6565b915061348c8261344b565b602082019050919050565b600060208201905081810360008301526134b081613474565b9050919050565b7f4a4e460000000000000000000000000000000000000000000000000000000000600082015250565b60006134ed6003836124e6565b91506134f8826134b7565b602082019050919050565b6000602082019050818103600083015261351c816134e0565b9050919050565b7f464e480000000000000000000000000000000000000000000000000000000000600082015250565b60006135596003836124e6565b915061356482613523565b602082019050919050565b600060208201905081810360008301526135888161354c565b9050919050565b60006060820190506135a46000830186612575565b6135b160208301856124cc565b6135be6040830184612575565b949350505050565b60006135d182612860565b915060ff82036135e4576135e361304e565b5b600182019050919050565b600061360a61360561360084612860565b613149565b61256b565b9050919050565b61361a816135ef565b82525050565b60006040820190506136356000830185613611565b81810360208301526136478184612532565b90509392505050565b7f4a44452e00000000000000000000000000000000000000000000000000000000600082015250565b60006136866004836124e6565b915061369182613650565b602082019050919050565b600060208201905081810360008301526136b581613679565b9050919050565b7f4641480000000000000000000000000000000000000000000000000000000000600082015250565b60006136f26003836124e6565b91506136fd826136bc565b602082019050919050565b60006020820190508181036000830152613721816136e5565b9050919050565b60006137338261256b565b915061373e8361256b565b92508282019050808211156137565761375561304e565b5b92915050565b7f4e487b7100000000000000000000000000000000000000000000000000000000600052603260045260246000fd5b7f49412e0000000000000000000000000000000000000000000000000000000000600082015250565b60006137c16003836124e6565b91506137cc8261378b565b602082019050919050565b600060208201905081810360008301526137f0816137b4565b9050919050565b7f5948410000000000000000000000000000000000000000000000000000000000600082015250565b600061382d6003836124e6565b9150613838826137f7565b602082019050919050565b6000602082019050818103600083015261385c81613820565b9050919050565b60006060820190506138786000830186612575565b61388560208301856124cc565b61389260408301846124cc565b94935050505056fea26469706673582212206721330a858982b9b0c955d6f9e0743589925020c67f682537dbf3a33457b21b64736f6c63430008140033",
  "linkReferences": {},
  "deployedLinkReferences": {}
}