{
  "address": "0xe7f1725E7734CE288F8367e1Bb143E90bb3F0512",
  "abi": [
    {
      "anonymous": false,
      "inputs": [
        {
          "indexed": false,
          "internalType": "uint256",
          "name": "jobId",
          "type": "uint256"
        },
        {
          "indexed": false,
          "internalType": "address",
          "name": "employerAddress",
          "type": "address"
        },
        {
          "indexed": false,
          "internalType": "address",
          "name": "freelancerAddress",
          "type": "address"
        }
      ],
      "name": "AppliedForJob",
      "type": "event"
    },
    {
      "anonymous": false,
      "inputs": [
        {
          "indexed": false,
          "internalType": "address",
          "name": "EmployerAddress",
          "type": "address"
        },
        {
          "indexed": false,
          "internalType": "string",
          "name": "name",
          "type": "string"
        }
      ],
      "name": "EmployerRegistered",
      "type": "event"
    },
    {
      "anonymous": false,
      "inputs": [
        {
          "indexed": false,
          "internalType": "address",
          "name": "freelancerAddress",
          "type": "address"
        },
        {
          "indexed": false,
          "internalType": "string[]",
          "name": "name",
          "type": "string[]"
        },
        {
          "indexed": false,
          "internalType": "uint256",
          "name": "amount",
          "type": "uint256"
        }
      ],
      "name": "FreelancerRegistered",
      "type": "event"
    },
    {
      "anonymous": false,
      "inputs": [
        {
          "indexed": false,
          "internalType": "uint256",
          "name": "jobId",
          "type": "uint256"
        },
        {
          "indexed": false,
          "internalType": "address",
          "name": "sender",
          "type": "address"
        },
        {
          "indexed": false,
          "internalType": "uint256",
          "name": "amount",
          "type": "uint256"
        }
      ],
      "name": "FundsDeposited",
      "type": "event"
    },
    {
      "anonymous": false,
      "inputs": [
        {
          "indexed": false,
          "internalType": "uint256",
          "name": "jobId",
          "type": "uint256"
        },
        {
          "indexed": false,
          "internalType": "address",
          "name": "freelancerAddress",
          "type": "address"
        },
        {
          "indexed": false,
          "internalType": "uint256",
          "name": "amount",
          "type": "uint256"
        }
      ],
      "name": "FundsReleased",
      "type": "event"
    },
    {
      "anonymous": false,
      "inputs": [
        {
          "indexed": false,
          "internalType": "uint256",
          "name": "jobId",
          "type": "uint256"
        },
        {
          "indexed": false,
          "internalType": "address",
          "name": "freelancerAddress",
          "type": "address"
        },
        {
          "indexed": false,
          "internalType": "uint256",
          "name": "payment",
          "type": "uint256"
        }
      ],
      "name": "JobCompleted",
      "type": "event"
    },
    {
      "anonymous": false,
      "inputs": [
        {
          "indexed": false,
          "internalType": "uint256",
          "name": "jobId",
          "type": "uint256"
        },
        {
          "indexed": false,
          "internalType": "string",
          "name": "title",
          "type": "string"
        }
      ],
      "name": "JobCreated",
      "type": "event"
    },
    {
      "anonymous": false,
      "inputs": [
        {
          "indexed": false,
          "internalType": "address",
          "name": "freelancer",
          "type": "address"
        },
        {
          "indexed": false,
          "internalType": "uint256",
          "name": "amount",
          "type": "uint256"
        }
      ],
      "name": "WithdrawFund",
      "type": "event"
    },
    {
      "inputs": [
        {
          "internalType": "uint256",
          "name": "",
          "type": "uint256"
        }
      ],
      "name": "allFreelancerAddresses",
      "outputs": [
        {
          "internalType": "address",
          "name": "",
          "type": "address"
        }
      ],
      "stateMutability": "view",
      "type": "function"
    },
    {
      "inputs": [],
      "name": "allJobs",
      "outputs": [
        {
          "components": [
            {
              "internalType": "uint8",
              "name": "id",
              "type": "uint8"
            },
            {
              "internalType": "address",
              "name": "employer",
              "type": "address"
            },
            {
              "internalType": "string",
              "name": "title",
              "type": "string"
            },
            {
              "internalType": "string",
              "name": "description",
              "type": "string"
            },
            {
              "internalType": "uint256",
              "name": "budget",
              "type": "uint256"
            },
            {
              "internalType": "bool",
              "name": "completed",
              "type": "bool"
            },
            {
              "internalType": "address[]",
              "name": "applicants",
              "type": "address[]"
            },
            {
              "internalType": "address",
              "name": "hiredFreelancer",
              "type": "address"
            }
          ],
          "internalType": "struct Djob.Job[]",
          "name": "props",
          "type": "tuple[]"
        }
      ],
      "stateMutability": "view",
      "type": "function"
    },
    {
      "inputs": [
        {
          "internalType": "uint256",
          "name": "jobId",
          "type": "uint256"
        }
      ],
      "name": "applyForJob",
      "outputs": [],
      "stateMutability": "nonpayable",
      "type": "function"
    },
    {
      "inputs": [
        {
          "internalType": "uint256",
          "name": "jobId",
          "type": "uint256"
        },
        {
          "internalType": "address",
          "name": "freelancerAddress",
          "type": "address"
        }
      ],
      "name": "completeJob",
      "outputs": [],
      "stateMutability": "nonpayable",
      "type": "function"
    },
    {
      "inputs": [
        {
          "internalType": "string",
          "name": "_title",
          "type": "string"
        },
        {
          "internalType": "string",
          "name": "_description",
          "type": "string"
        },
        {
          "internalType": "uint256",
          "name": "_budget",
          "type": "uint256"
        }
      ],
      "name": "createJob",
      "outputs": [],
      "stateMutability": "nonpayable",
      "type": "function"
    },
    {
      "inputs": [
        {
          "internalType": "uint256",
          "name": "jobId",
          "type": "uint256"
        }
      ],
      "name": "depositFunds",
      "outputs": [],
      "stateMutability": "payable",
      "type": "function"
    },
    {
      "inputs": [
        {
          "internalType": "address",
          "name": "",
          "type": "address"
        }
      ],
      "name": "employers",
      "outputs": [
        {
          "internalType": "address",
          "name": "employerAddress",
          "type": "address"
        },
        {
          "internalType": "string",
          "name": "name",
          "type": "string"
        },
        {
          "internalType": "string",
          "name": "industry",
          "type": "string"
        },
        {
          "internalType": "uint256",
          "name": "balance",
          "type": "uint256"
        },
        {
          "internalType": "string",
          "name": "country",
          "type": "string"
        },
        {
          "internalType": "string",
          "name": "image",
          "type": "string"
        },
        {
          "internalType": "bool",
          "name": "registered",
          "type": "bool"
        },
        {
          "internalType": "uint256",
          "name": "registration_date",
          "type": "uint256"
        }
      ],
      "stateMutability": "view",
      "type": "function"
    },
    {
      "inputs": [
        {
          "internalType": "address",
          "name": "",
          "type": "address"
        }
      ],
      "name": "freelancers",
      "outputs": [
        {
          "internalType": "address",
          "name": "freelancerAddress",
          "type": "address"
        },
        {
          "internalType": "string",
          "name": "name",
          "type": "string"
        },
        {
          "internalType": "string",
          "name": "skills",
          "type": "string"
        },
        {
          "internalType": "uint256",
          "name": "balance",
          "type": "uint256"
        },
        {
          "internalType": "string",
          "name": "country",
          "type": "string"
        },
        {
          "internalType": "string",
          "name": "gigTitle",
          "type": "string"
        },
        {
          "internalType": "string",
          "name": "gitDescription",
          "type": "string"
        },
        {
          "internalType": "uint256",
          "name": "jobsCompleted",
          "type": "uint256"
        },
        {
          "internalType": "bool",
          "name": "registered",
          "type": "bool"
        },
        {
          "internalType": "uint256",
          "name": "registration_date",
          "type": "uint256"
        },
        {
          "internalType": "uint256",
          "name": "starting_price",
          "type": "uint256"
        }
      ],
      "stateMutability": "view",
      "type": "function"
    },
    {
      "inputs": [],
      "name": "getAllFreelancers",
      "outputs": [
        {
          "components": [
            {
              "internalType": "address",
              "name": "freelancerAddress",
              "type": "address"
            },
            {
              "internalType": "string",
              "name": "name",
              "type": "string"
            },
            {
              "internalType": "string",
              "name": "skills",
              "type": "string"
            },
            {
              "internalType": "uint256",
              "name": "balance",
              "type": "uint256"
            },
            {
              "internalType": "string",
              "name": "country",
              "type": "string"
            },
            {
              "internalType": "string",
              "name": "gigTitle",
              "type": "string"
            },
            {
              "internalType": "string",
              "name": "gitDescription",
              "type": "string"
            },
            {
              "internalType": "string[]",
              "name": "images",
              "type": "string[]"
            },
            {
              "internalType": "uint256",
              "name": "jobsCompleted",
              "type": "uint256"
            },
            {
              "internalType": "bool",
              "name": "registered",
              "type": "bool"
            },
            {
              "internalType": "uint256",
              "name": "registration_date",
              "type": "uint256"
            },
            {
              "internalType": "uint256",
              "name": "starting_price",
              "type": "uint256"
            }
          ],
          "internalType": "struct Djob.Freelancer[]",
          "name": "",
          "type": "tuple[]"
        }
      ],
      "stateMutability": "view",
      "type": "function"
    },
    {
      "inputs": [
        {
          "internalType": "address",
          "name": "_employer",
          "type": "address"
        }
      ],
      "name": "getEmployerByAddress",
      "outputs": [
        {
          "components": [
            {
              "internalType": "address",
              "name": "employerAddress",
              "type": "address"
            },
            {
              "internalType": "string",
              "name": "name",
              "type": "string"
            },
            {
              "internalType": "string",
              "name": "industry",
              "type": "string"
            },
            {
              "internalType": "uint256",
              "name": "balance",
              "type": "uint256"
            },
            {
              "internalType": "string",
              "name": "country",
              "type": "string"
            },
            {
              "internalType": "string",
              "name": "image",
              "type": "string"
            },
            {
              "internalType": "bool",
              "name": "registered",
              "type": "bool"
            },
            {
              "internalType": "uint256",
              "name": "registration_date",
              "type": "uint256"
            }
          ],
          "internalType": "struct Djob.Employer",
          "name": "props",
          "type": "tuple"
        }
      ],
      "stateMutability": "view",
      "type": "function"
    },
    {
      "inputs": [
        {
          "internalType": "address",
          "name": "_employer",
          "type": "address"
        },
        {
          "internalType": "uint256",
          "name": "_job_id",
          "type": "uint256"
        }
      ],
      "name": "getEmployerEscrow",
      "outputs": [
        {
          "internalType": "uint256",
          "name": "",
          "type": "uint256"
        }
      ],
      "stateMutability": "view",
      "type": "function"
    },
    {
      "inputs": [
        {
          "internalType": "address",
          "name": "_freelancer",
          "type": "address"
        }
      ],
      "name": "getFreelancerByAddress",
      "outputs": [
        {
          "components": [
            {
              "internalType": "address",
              "name": "freelancerAddress",
              "type": "address"
            },
            {
              "internalType": "string",
              "name": "name",
              "type": "string"
            },
            {
              "internalType": "string",
              "name": "skills",
              "type": "string"
            },
            {
              "internalType": "uint256",
              "name": "balance",
              "type": "uint256"
            },
            {
              "internalType": "string",
              "name": "country",
              "type": "string"
            },
            {
              "internalType": "string",
              "name": "gigTitle",
              "type": "string"
            },
            {
              "internalType": "string",
              "name": "gitDescription",
              "type": "string"
            },
            {
              "internalType": "string[]",
              "name": "images",
              "type": "string[]"
            },
            {
              "internalType": "uint256",
              "name": "jobsCompleted",
              "type": "uint256"
            },
            {
              "internalType": "bool",
              "name": "registered",
              "type": "bool"
            },
            {
              "internalType": "uint256",
              "name": "registration_date",
              "type": "uint256"
            },
            {
              "internalType": "uint256",
              "name": "starting_price",
              "type": "uint256"
            }
          ],
          "internalType": "struct Djob.Freelancer",
          "name": "props",
          "type": "tuple"
        }
      ],
      "stateMutability": "view",
      "type": "function"
    },
    {
      "inputs": [
        {
          "internalType": "uint256",
          "name": "jobId",
          "type": "uint256"
        }
      ],
      "name": "getJobByID",
      "outputs": [
        {
          "components": [
            {
              "internalType": "uint8",
              "name": "id",
              "type": "uint8"
            },
            {
              "internalType": "address",
              "name": "employer",
              "type": "address"
            },
            {
              "internalType": "string",
              "name": "title",
              "type": "string"
            },
            {
              "internalType": "string",
              "name": "description",
              "type": "string"
            },
            {
              "internalType": "uint256",
              "name": "budget",
              "type": "uint256"
            },
            {
              "internalType": "bool",
              "name": "completed",
              "type": "bool"
            },
            {
              "internalType": "address[]",
              "name": "applicants",
              "type": "address[]"
            },
            {
              "internalType": "address",
              "name": "hiredFreelancer",
              "type": "address"
            }
          ],
          "internalType": "struct Djob.Job",
          "name": "props",
          "type": "tuple"
        }
      ],
      "stateMutability": "view",
      "type": "function"
    },
    {
      "inputs": [
        {
          "internalType": "uint256",
          "name": "jobId",
          "type": "uint256"
        },
        {
          "internalType": "address",
          "name": "freelancerAddress",
          "type": "address"
        }
      ],
      "name": "hireFreelancer",
      "outputs": [],
      "stateMutability": "nonpayable",
      "type": "function"
    },
    {
      "inputs": [],
      "name": "owner",
      "outputs": [
        {
          "internalType": "address",
          "name": "",
          "type": "address"
        }
      ],
      "stateMutability": "view",
      "type": "function"
    },
    {
      "inputs": [
        {
          "internalType": "string",
          "name": "_name",
          "type": "string"
        },
        {
          "internalType": "string",
          "name": "_industry",
          "type": "string"
        },
        {
          "internalType": "string",
          "name": "_country",
          "type": "string"
        },
        {
          "internalType": "string",
          "name": "_imageURI",
          "type": "string"
        }
      ],
      "name": "registerEmployer",
      "outputs": [],
      "stateMutability": "nonpayable",
      "type": "function"
    },
    {
      "inputs": [
        {
          "internalType": "string",
          "name": "_name",
          "type": "string"
        },
        {
          "internalType": "string",
          "name": "_skills",
          "type": "string"
        },
        {
          "internalType": "string",
          "name": "_country",
          "type": "string"
        },
        {
          "internalType": "string",
          "name": "_gigTitle",
          "type": "string"
        },
        {
          "internalType": "string",
          "name": "_gigDesc",
          "type": "string"
        },
        {
          "internalType": "string[]",
          "name": "_images",
          "type": "string[]"
        },
        {
          "internalType": "uint256",
          "name": "_starting_price",
          "type": "uint256"
        }
      ],
      "name": "registerFreelancer",
      "outputs": [],
      "stateMutability": "nonpayable",
      "type": "function"
    },
    {
      "inputs": [
        {
          "internalType": "uint256",
          "name": "jobId",
          "type": "uint256"
        },
        {
          "internalType": "address",
          "name": "freelancerAddress",
          "type": "address"
        }
      ],
      "name": "releaseEscrow",
      "outputs": [],
      "stateMutability": "nonpayable",
      "type": "function"
    },
    {
      "inputs": [],
      "name": "totalCompletedJobs",
      "outputs": [
        {
          "internalType": "uint256",
          "name": "",
          "type": "uint256"
        }
      ],
      "stateMutability": "view",
      "type": "function"
    },
    {
      "inputs": [],
      "name": "totalEmployers",
      "outputs": [
        {
          "internalType": "uint256",
          "name": "",
          "type": "uint256"
        }
      ],
      "stateMutability": "view",
      "type": "function"
    },
    {
      "inputs": [],
      "name": "totalFreelancers",
      "outputs": [
        {
          "internalType": "uint256",
          "name": "",
          "type": "uint256"
        }
      ],
      "stateMutability": "view",
      "type": "function"
    },
    {
      "inputs": [],
      "name": "totalJobs",
      "outputs": [
        {
          "internalType": "uint8",
          "name": "",
          "type": "uint8"
        }
      ],
      "stateMutability": "view",
      "type": "function"
    },
    {
      "inputs": [],
      "name": "withdrawEarnings",
      "outputs": [],
      "stateMutability": "nonpayable",
      "type": "function"
    }
  ],
  "transactionHash": "0xa9e385b43d47435ce9e4331b01d483c05fb0bf327d82282d32e2e6db6efa9e42",
  "args": [],
  "numDeployments": 1,
  "solcInputHash": "e25c844a45787c50410bab055bbcc104",
  "bytecode": "0x608060405234801561001057600080fd5b50336000806101000a81548173ffffffffffffffffffffffffffffffffffffffff021916908373ffffffffffffffffffffffffffffffffffffffff160217905550615e2780620000616000396000f3fe6080604052600436106101405760003560e01c80635e586eb1116100b6578063b73c6ce91161006f578063b73c6ce914610472578063c27a9dd414610489578063c6cb3bbe146104c6578063c8d1b6aa146104ef578063dfac8ce51461051a578063e0c94ae51461055757610140565b80635e586eb1146103645780636a6b67d11461038f57806373a06f42146103b85780637a787125146103e15780638da5cb5b1461041e578063b0f26f181461044957610140565b80631c7af7a0116101085780631c7af7a01461023357806321bd669314610270578063359b248c146102b7578063371ae9f4146102e25780633b76594d1461031f57806358d7f8951461033b57610140565b80630be435bd146101455780630e553442146101895780631033397b146101b25780631906b4ce146101dd5780631ace87b314610208575b600080fd5b34801561015157600080fd5b5061016c60048036038101906101679190613e47565b610580565b604051610180989796959493929190613f47565b60405180910390f35b34801561019557600080fd5b506101b060048036038101906101ab9190614116565b610815565b005b3480156101be57600080fd5b506101c7610a87565b6040516101d491906141ed565b60405180910390f35b3480156101e957600080fd5b506101f2610a8d565b6040516101ff91906141ed565b60405180910390f35b34801561021457600080fd5b5061021d610a93565b60405161022a9190614224565b60405180910390f35b34801561023f57600080fd5b5061025a60048036038101906102559190613e47565b610aa6565b604051610267919061449f565b60405180910390f35b34801561027c57600080fd5b5061029760048036038101906102929190613e47565b610f4c565b6040516102ae9b9a999897969594939291906144c1565b60405180910390f35b3480156102c357600080fd5b506102cc61127b565b6040516102d99190614778565b60405180910390f35b3480156102ee57600080fd5b50610309600480360381019061030491906147c6565b6117f2565b604051610316919061496f565b60405180910390f35b610339600480360381019061033491906147c6565b611b21565b005b34801561034757600080fd5b50610362600480360381019061035d9190614a77565b611d93565b005b34801561037057600080fd5b506103796120d1565b60405161038691906141ed565b60405180910390f35b34801561039b57600080fd5b506103b660048036038101906103b19190614bc1565b6120d7565b005b3480156103c457600080fd5b506103df60048036038101906103da9190614c01565b6123d4565b005b3480156103ed57600080fd5b5061040860048036038101906104039190613e47565b612721565b6040516104159190614d51565b60405180910390f35b34801561042a57600080fd5b50610433612a48565b6040516104409190614d73565b60405180910390f35b34801561045557600080fd5b50610470600480360381019061046b9190614bc1565b612a6c565b005b34801561047e57600080fd5b50610487612cdb565b005b34801561049557600080fd5b506104b060048036038101906104ab91906147c6565b612f4c565b6040516104bd9190614d73565b60405180910390f35b3480156104d257600080fd5b506104ed60048036038101906104e89190614bc1565b612f8b565b005b3480156104fb57600080fd5b506105046133c0565b6040516105119190614f0e565b60405180910390f35b34801561052657600080fd5b50610541600480360381019061053c9190614f30565b613747565b60405161054e91906141ed565b60405180910390f35b34801561056357600080fd5b5061057e600480360381019061057991906147c6565b6137a2565b005b60076020528060005260406000206000915090508060000160009054906101000a900473ffffffffffffffffffffffffffffffffffffffff16908060010180546105c990614f9f565b80601f01602080910402602001604051908101604052809291908181526020018280546105f590614f9f565b80156106425780601f1061061757610100808354040283529160200191610642565b820191906000526020600020905b81548152906001019060200180831161062557829003601f168201915b50505050509080600201805461065790614f9f565b80601f016020809104026020016040519081016040528092919081815260200182805461068390614f9f565b80156106d05780601f106106a5576101008083540402835291602001916106d0565b820191906000526020600020905b8154815290600101906020018083116106b357829003601f168201915b5050505050908060030154908060040180546106eb90614f9f565b80601f016020809104026020016040519081016040528092919081815260200182805461071790614f9f565b80156107645780601f1061073957610100808354040283529160200191610764565b820191906000526020600020905b81548152906001019060200180831161074757829003601f168201915b50505050509080600501805461077990614f9f565b80601f01602080910402602001604051908101604052809291908181526020018280546107a590614f9f565b80156107f25780601f106107c7576101008083540402835291602001916107f2565b820191906000526020600020905b8154815290600101906020018083116107d557829003601f168201915b5050505050908060060160009054906101000a900460ff16908060070154905088565b60001515600760003373ffffffffffffffffffffffffffffffffffffffff1673ffffffffffffffffffffffffffffffffffffffff16815260200190815260200160002060060160009054906101000a900460ff161515146108ab576040517f08c379a00000000000000000000000000000000000000000000000000000000081526004016108a29061501c565b60405180910390fd5b60008451116108b957600080fd5b60008351116108c757600080fd5b600260008154809291906108da9061506b565b91905055506040518061010001604052803373ffffffffffffffffffffffffffffffffffffffff1681526020018581526020018481526020016000815260200183815260200182815260200160011515815260200142815250600760003373ffffffffffffffffffffffffffffffffffffffff1673ffffffffffffffffffffffffffffffffffffffff16815260200190815260200160002060008201518160000160006101000a81548173ffffffffffffffffffffffffffffffffffffffff021916908373ffffffffffffffffffffffffffffffffffffffff16021790555060208201518160010190816109ce919061525f565b5060408201518160020190816109e4919061525f565b50606082015181600301556080820151816004019081610a04919061525f565b5060a0820151816005019081610a1a919061525f565b5060c08201518160060160006101000a81548160ff02191690831515021790555060e082015181600701559050507f6c0e8aabac6898602e5264c9a24b2394d9895a70bd2f4c44c8ca0fcfcec6477f3385604051610a79929190615331565b60405180910390a150505050565b60035481565b60025481565b600060149054906101000a900460ff1681565b610aae613b25565b600660008373ffffffffffffffffffffffffffffffffffffffff1673ffffffffffffffffffffffffffffffffffffffff168152602001908152602001600020604051806101800160405290816000820160009054906101000a900473ffffffffffffffffffffffffffffffffffffffff1673ffffffffffffffffffffffffffffffffffffffff1673ffffffffffffffffffffffffffffffffffffffff168152602001600182018054610b5f90614f9f565b80601f0160208091040260200160405190810160405280929190818152602001828054610b8b90614f9f565b8015610bd85780601f10610bad57610100808354040283529160200191610bd8565b820191906000526020600020905b815481529060010190602001808311610bbb57829003601f168201915b50505050508152602001600282018054610bf190614f9f565b80601f0160208091040260200160405190810160405280929190818152602001828054610c1d90614f9f565b8015610c6a5780601f10610c3f57610100808354040283529160200191610c6a565b820191906000526020600020905b815481529060010190602001808311610c4d57829003601f168201915b5050505050815260200160038201548152602001600482018054610c8d90614f9f565b80601f0160208091040260200160405190810160405280929190818152602001828054610cb990614f9f565b8015610d065780601f10610cdb57610100808354040283529160200191610d06565b820191906000526020600020905b815481529060010190602001808311610ce957829003601f168201915b50505050508152602001600582018054610d1f90614f9f565b80601f0160208091040260200160405190810160405280929190818152602001828054610d4b90614f9f565b8015610d985780601f10610d6d57610100808354040283529160200191610d98565b820191906000526020600020905b815481529060010190602001808311610d7b57829003601f168201915b50505050508152602001600682018054610db190614f9f565b80601f0160208091040260200160405190810160405280929190818152602001828054610ddd90614f9f565b8015610e2a5780601f10610dff57610100808354040283529160200191610e2a565b820191906000526020600020905b815481529060010190602001808311610e0d57829003601f168201915b5050505050815260200160078201805480602002602001604051908101604052809291908181526020016000905b82821015610f04578382906000526020600020018054610e7790614f9f565b80601f0160208091040260200160405190810160405280929190818152602001828054610ea390614f9f565b8015610ef05780601f10610ec557610100808354040283529160200191610ef0565b820191906000526020600020905b815481529060010190602001808311610ed357829003601f168201915b505050505081526020019060010190610e58565b505050508152602001600882015481526020016009820160009054906101000a900460ff16151515158152602001600a8201548152602001600b820154815250509050919050565b60066020528060005260406000206000915090508060000160009054906101000a900473ffffffffffffffffffffffffffffffffffffffff1690806001018054610f9590614f9f565b80601f0160208091040260200160405190810160405280929190818152602001828054610fc190614f9f565b801561100e5780601f10610fe35761010080835404028352916020019161100e565b820191906000526020600020905b815481529060010190602001808311610ff157829003601f168201915b50505050509080600201805461102390614f9f565b80601f016020809104026020016040519081016040528092919081815260200182805461104f90614f9f565b801561109c5780601f106110715761010080835404028352916020019161109c565b820191906000526020600020905b81548152906001019060200180831161107f57829003601f168201915b5050505050908060030154908060040180546110b790614f9f565b80601f01602080910402602001604051908101604052809291908181526020018280546110e390614f9f565b80156111305780601f1061110557610100808354040283529160200191611130565b820191906000526020600020905b81548152906001019060200180831161111357829003601f168201915b50505050509080600501805461114590614f9f565b80601f016020809104026020016040519081016040528092919081815260200182805461117190614f9f565b80156111be5780601f10611193576101008083540402835291602001916111be565b820191906000526020600020905b8154815290600101906020018083116111a157829003601f168201915b5050505050908060060180546111d390614f9f565b80601f01602080910402602001604051908101604052809291908181526020018280546111ff90614f9f565b801561124c5780601f106112215761010080835404028352916020019161124c565b820191906000526020600020905b81548152906001019060200180831161122f57829003601f168201915b5050505050908060080154908060090160009054906101000a900460ff169080600a01549080600b015490508b565b6060600060015467ffffffffffffffff81111561129b5761129a613feb565b5b6040519080825280602002602001820160405280156112d457816020015b6112c1613b25565b8152602001906001900390816112b95790505b50905060005b6001548110156117ea5760066000600483815481106112fc576112fb615361565b5b9060005260206000200160009054906101000a900473ffffffffffffffffffffffffffffffffffffffff1673ffffffffffffffffffffffffffffffffffffffff1673ffffffffffffffffffffffffffffffffffffffff168152602001908152602001600020604051806101800160405290816000820160009054906101000a900473ffffffffffffffffffffffffffffffffffffffff1673ffffffffffffffffffffffffffffffffffffffff1673ffffffffffffffffffffffffffffffffffffffff1681526020016001820180546113d390614f9f565b80601f01602080910402602001604051908101604052809291908181526020018280546113ff90614f9f565b801561144c5780601f106114215761010080835404028352916020019161144c565b820191906000526020600020905b81548152906001019060200180831161142f57829003601f168201915b5050505050815260200160028201805461146590614f9f565b80601f016020809104026020016040519081016040528092919081815260200182805461149190614f9f565b80156114de5780601f106114b3576101008083540402835291602001916114de565b820191906000526020600020905b8154815290600101906020018083116114c157829003601f168201915b505050505081526020016003820154815260200160048201805461150190614f9f565b80601f016020809104026020016040519081016040528092919081815260200182805461152d90614f9f565b801561157a5780601f1061154f5761010080835404028352916020019161157a565b820191906000526020600020905b81548152906001019060200180831161155d57829003601f168201915b5050505050815260200160058201805461159390614f9f565b80601f01602080910402602001604051908101604052809291908181526020018280546115bf90614f9f565b801561160c5780601f106115e15761010080835404028352916020019161160c565b820191906000526020600020905b8154815290600101906020018083116115ef57829003601f168201915b5050505050815260200160068201805461162590614f9f565b80601f016020809104026020016040519081016040528092919081815260200182805461165190614f9f565b801561169e5780601f106116735761010080835404028352916020019161169e565b820191906000526020600020905b81548152906001019060200180831161168157829003601f168201915b5050505050815260200160078201805480602002602001604051908101604052809291908181526020016000905b828210156117785783829060005260206000200180546116eb90614f9f565b80601f016020809104026020016040519081016040528092919081815260200182805461171790614f9f565b80156117645780601f1061173957610100808354040283529160200191611764565b820191906000526020600020905b81548152906001019060200180831161174757829003601f168201915b5050505050815260200190600101906116cc565b505050508152602001600882015481526020016009820160009054906101000a900460ff16151515158152602001600a8201548152602001600b820154815250508282815181106117cc576117cb615361565b5b602002602001018190525080806117e29061506b565b9150506112da565b508091505090565b6117fa613b9e565b60008211801561181c5750600060149054906101000a900460ff1660ff168211155b61185b576040517f08c379a0000000000000000000000000000000000000000000000000000000008152600401611852906153dc565b60405180910390fd5b60056000838152602001908152602001600020604051806101000160405290816000820160009054906101000a900460ff1660ff1660ff1681526020016000820160019054906101000a900473ffffffffffffffffffffffffffffffffffffffff1673ffffffffffffffffffffffffffffffffffffffff1673ffffffffffffffffffffffffffffffffffffffff1681526020016001820180546118fd90614f9f565b80601f016020809104026020016040519081016040528092919081815260200182805461192990614f9f565b80156119765780601f1061194b57610100808354040283529160200191611976565b820191906000526020600020905b81548152906001019060200180831161195957829003601f168201915b5050505050815260200160028201805461198f90614f9f565b80601f01602080910402602001604051908101604052809291908181526020018280546119bb90614f9f565b8015611a085780601f106119dd57610100808354040283529160200191611a08565b820191906000526020600020905b8154815290600101906020018083116119eb57829003601f168201915b50505050508152602001600382015481526020016004820160009054906101000a900460ff1615151515815260200160058201805480602002602001604051908101604052809291908181526020018280548015611abb57602002820191906000526020600020905b8160009054906101000a900473ffffffffffffffffffffffffffffffffffffffff1673ffffffffffffffffffffffffffffffffffffffff1681526020019060010190808311611a71575b505050505081526020016006820160009054906101000a900473ffffffffffffffffffffffffffffffffffffffff1673ffffffffffffffffffffffffffffffffffffffff1673ffffffffffffffffffffffffffffffffffffffff16815250509050919050565b600060149054906101000a900460ff1660ff168111158015611b435750600081115b611b82576040517f08c379a0000000000000000000000000000000000000000000000000000000008152600401611b7990615448565b60405180910390fd5b60006005600083815260200190815260200160002090506000600760003373ffffffffffffffffffffffffffffffffffffffff1673ffffffffffffffffffffffffffffffffffffffff16815260200190815260200160002090503373ffffffffffffffffffffffffffffffffffffffff168260000160019054906101000a900473ffffffffffffffffffffffffffffffffffffffff1673ffffffffffffffffffffffffffffffffffffffff1614611c3857600080fd5b8160040160009054906101000a900460ff1615611c8a576040517f08c379a0000000000000000000000000000000000000000000000000000000008152600401611c81906154b4565b60405180910390fd5b8160030154341015611cd1576040517f08c379a0000000000000000000000000000000000000000000000000000000008152600401611cc890615520565b60405180910390fd5b34816003016000828254611ce59190615540565b9250508190555034600860003373ffffffffffffffffffffffffffffffffffffffff1673ffffffffffffffffffffffffffffffffffffffff16815260200190815260200160002060008581526020019081526020016000206000828254611d4c9190615540565b925050819055507fe030e47e27825a2ad1b19e4cf2e70bfbfb3124af275c7727a82b114ba7b29a85833334604051611d8693929190615574565b60405180910390a1505050565b60001515600660003373ffffffffffffffffffffffffffffffffffffffff1673ffffffffffffffffffffffffffffffffffffffff16815260200190815260200160002060090160009054906101000a900460ff16151514611e29576040517f08c379a0000000000000000000000000000000000000000000000000000000008152600401611e209061501c565b60405180910390fd5b6000875111611e3757600080fd5b6000865111611e4557600080fd5b60016000815480929190611e589061506b565b91905055506040518061018001604052803373ffffffffffffffffffffffffffffffffffffffff168152602001888152602001878152602001600081526020018681526020018581526020018481526020018381526020016000815260200160011515815260200142815260200182815250600660003373ffffffffffffffffffffffffffffffffffffffff1673ffffffffffffffffffffffffffffffffffffffff16815260200190815260200160002060008201518160000160006101000a81548173ffffffffffffffffffffffffffffffffffffffff021916908373ffffffffffffffffffffffffffffffffffffffff1602179055506020820151816001019081611f65919061525f565b506040820151816002019081611f7b919061525f565b50606082015181600301556080820151816004019081611f9b919061525f565b5060a0820151816005019081611fb1919061525f565b5060c0820151816006019081611fc7919061525f565b5060e0820151816007019080519060200190611fe4929190613c14565b5061010082015181600801556101208201518160090160006101000a81548160ff02191690831515021790555061014082015181600a015561016082015181600b01559050506004339080600181540180825580915050600190039060005260206000200160009091909190916101000a81548173ffffffffffffffffffffffffffffffffffffffff021916908373ffffffffffffffffffffffffffffffffffffffff1602179055507f21bef455eb0e77b12a579311ca8616d72216c8b628577eeda276ac16fe5b622e3383836040516120c093929190615631565b60405180910390a150505050505050565b60015481565b338073ffffffffffffffffffffffffffffffffffffffff16600760003373ffffffffffffffffffffffffffffffffffffffff1673ffffffffffffffffffffffffffffffffffffffff16815260200190815260200160002060000160009054906101000a900473ffffffffffffffffffffffffffffffffffffffff1673ffffffffffffffffffffffffffffffffffffffff16146121a8576040517f08c379a000000000000000000000000000000000000000000000000000000000815260040161219f906156bb565b60405180910390fd5b600060149054906101000a900460ff1660ff1683111580156121ca5750600083115b612209576040517f08c379a000000000000000000000000000000000000000000000000000000000815260040161220090615727565b60405180910390fd5b6000600560008581526020019081526020016000209050600073ffffffffffffffffffffffffffffffffffffffff168160000160019054906101000a900473ffffffffffffffffffffffffffffffffffffffff1673ffffffffffffffffffffffffffffffffffffffff16036122b3576040517f08c379a00000000000000000000000000000000000000000000000000000000081526004016122aa90615793565b60405180910390fd5b6122bd8184613ab8565b6122fc576040517f08c379a00000000000000000000000000000000000000000000000000000000081526004016122f3906157ff565b60405180910390fd5b60008160030154905060018260040160006101000a81548160ff021916908315150217905550600360008154809291906123359061506b565b9190505550600660008573ffffffffffffffffffffffffffffffffffffffff1673ffffffffffffffffffffffffffffffffffffffff168152602001908152602001600020600801600081548092919061238d9061506b565b91905055507f4dbba472101e9f148a3a5ecbe793f0ee16a7efe4bf3f8cbfab5330e1642ef9558585836040516123c593929190615574565b60405180910390a15050505050565b338073ffffffffffffffffffffffffffffffffffffffff16600760003373ffffffffffffffffffffffffffffffffffffffff1673ffffffffffffffffffffffffffffffffffffffff16815260200190815260200160002060000160009054906101000a900473ffffffffffffffffffffffffffffffffffffffff1673ffffffffffffffffffffffffffffffffffffffff16146124a5576040517f08c379a000000000000000000000000000000000000000000000000000000000815260040161249c906156bb565b60405180910390fd5b6000601481819054906101000a900460ff16809291906124c49061581f565b91906101000a81548160ff021916908360ff1602179055505060008060149054906101000a900460ff1690506040518061010001604052808260ff1681526020013373ffffffffffffffffffffffffffffffffffffffff168152602001868152602001858152602001848152602001600015158152602001600067ffffffffffffffff81111561255757612556613feb565b5b6040519080825280602002602001820160405280156125855781602001602082028036833780820191505090505b508152602001600073ffffffffffffffffffffffffffffffffffffffff16815250600560008360ff16815260200190815260200160002060008201518160000160006101000a81548160ff021916908360ff16021790555060208201518160000160016101000a81548173ffffffffffffffffffffffffffffffffffffffff021916908373ffffffffffffffffffffffffffffffffffffffff1602179055506040820151816001019081612639919061525f565b50606082015181600201908161264f919061525f565b506080820151816003015560a08201518160040160006101000a81548160ff02191690831515021790555060c0820151816005019080519060200190612696929190613c6d565b5060e08201518160060160006101000a81548173ffffffffffffffffffffffffffffffffffffffff021916908373ffffffffffffffffffffffffffffffffffffffff1602179055509050507fb63f0fdfb200b05c8b95fb4dcf8f8abd30f0b6884d532792e705afab4f37380a8186604051612712929190615879565b60405180910390a15050505050565b612729613cf7565b600760008373ffffffffffffffffffffffffffffffffffffffff1673ffffffffffffffffffffffffffffffffffffffff168152602001908152602001600020604051806101000160405290816000820160009054906101000a900473ffffffffffffffffffffffffffffffffffffffff1673ffffffffffffffffffffffffffffffffffffffff1673ffffffffffffffffffffffffffffffffffffffff1681526020016001820180546127da90614f9f565b80601f016020809104026020016040519081016040528092919081815260200182805461280690614f9f565b80156128535780601f1061282857610100808354040283529160200191612853565b820191906000526020600020905b81548152906001019060200180831161283657829003601f168201915b5050505050815260200160028201805461286c90614f9f565b80601f016020809104026020016040519081016040528092919081815260200182805461289890614f9f565b80156128e55780601f106128ba576101008083540402835291602001916128e5565b820191906000526020600020905b8154815290600101906020018083116128c857829003601f168201915b505050505081526020016003820154815260200160048201805461290890614f9f565b80601f016020809104026020016040519081016040528092919081815260200182805461293490614f9f565b80156129815780601f1061295657610100808354040283529160200191612981565b820191906000526020600020905b81548152906001019060200180831161296457829003601f168201915b5050505050815260200160058201805461299a90614f9f565b80601f01602080910402602001604051908101604052809291908181526020018280546129c690614f9f565b8015612a135780601f106129e857610100808354040283529160200191612a13565b820191906000526020600020905b8154815290600101906020018083116129f657829003601f168201915b505050505081526020016006820160009054906101000a900460ff161515151581526020016007820154815250509050919050565b60008054906101000a900473ffffffffffffffffffffffffffffffffffffffff1681565b338073ffffffffffffffffffffffffffffffffffffffff16600760003373ffffffffffffffffffffffffffffffffffffffff1673ffffffffffffffffffffffffffffffffffffffff16815260200190815260200160002060000160009054906101000a900473ffffffffffffffffffffffffffffffffffffffff1673ffffffffffffffffffffffffffffffffffffffff1614612b3d576040517f08c379a0000000000000000000000000000000000000000000000000000000008152600401612b34906156bb565b60405180910390fd5b600060149054906101000a900460ff1660ff168311158015612b5f5750600083115b612b9e576040517f08c379a0000000000000000000000000000000000000000000000000000000008152600401612b9590615448565b60405180910390fd5b6000600560008581526020019081526020016000209050600073ffffffffffffffffffffffffffffffffffffffff168160000160019054906101000a900473ffffffffffffffffffffffffffffffffffffffff1673ffffffffffffffffffffffffffffffffffffffff1603612c48576040517f08c379a0000000000000000000000000000000000000000000000000000000008152600401612c3f90615793565b60405180910390fd5b612c528184613ab8565b15612c92576040517f08c379a0000000000000000000000000000000000000000000000000000000008152600401612c89906158f5565b60405180910390fd5b828160060160006101000a81548173ffffffffffffffffffffffffffffffffffffffff021916908373ffffffffffffffffffffffffffffffffffffffff16021790555050505050565b338073ffffffffffffffffffffffffffffffffffffffff16600660003373ffffffffffffffffffffffffffffffffffffffff1673ffffffffffffffffffffffffffffffffffffffff16815260200190815260200160002060000160009054906101000a900473ffffffffffffffffffffffffffffffffffffffff1673ffffffffffffffffffffffffffffffffffffffff1614612dac576040517f08c379a0000000000000000000000000000000000000000000000000000000008152600401612da390615961565b60405180910390fd5b6000600660003373ffffffffffffffffffffffffffffffffffffffff1673ffffffffffffffffffffffffffffffffffffffff16815260200190815260200160002090506000816003015411612e36576040517f08c379a0000000000000000000000000000000000000000000000000000000008152600401612e2d906159cd565b60405180910390fd5b60006064605f8360030154612e4b91906159ed565b612e559190615a5e565b90506000826003018190555060003373ffffffffffffffffffffffffffffffffffffffff1682604051612e8790615ac0565b60006040518083038185875af1925050503d8060008114612ec4576040519150601f19603f3d011682016040523d82523d6000602084013e612ec9565b606091505b5050905080612f0d576040517f08c379a0000000000000000000000000000000000000000000000000000000008152600401612f0490615b21565b60405180910390fd5b7f09ad672d4e7c4892da934d1051932ebe9ec4b6ec8c3f40d569176db3e93e5abe3383604051612f3e929190615b41565b60405180910390a150505050565b60048181548110612f5c57600080fd5b906000526020600020016000915054906101000a900473ffffffffffffffffffffffffffffffffffffffff1681565b338073ffffffffffffffffffffffffffffffffffffffff16600760003373ffffffffffffffffffffffffffffffffffffffff1673ffffffffffffffffffffffffffffffffffffffff16815260200190815260200160002060000160009054906101000a900473ffffffffffffffffffffffffffffffffffffffff1673ffffffffffffffffffffffffffffffffffffffff161461305c576040517f08c379a0000000000000000000000000000000000000000000000000000000008152600401613053906156bb565b60405180910390fd5b600060149054906101000a900460ff1660ff16831115801561307e5750600083115b6130bd576040517f08c379a00000000000000000000000000000000000000000000000000000000081526004016130b490615448565b60405180910390fd5b60006005600085815260200190815260200160002090508060000160019054906101000a900473ffffffffffffffffffffffffffffffffffffffff1673ffffffffffffffffffffffffffffffffffffffff163373ffffffffffffffffffffffffffffffffffffffff161461313057600080fd5b60018160040160006101000a81548160ff021916908315150217905561318b576040517f08c379a000000000000000000000000000000000000000000000000000000000815260040161318290615bb6565b60405180910390fd5b6000600860003373ffffffffffffffffffffffffffffffffffffffff1673ffffffffffffffffffffffffffffffffffffffff168152602001908152602001600020600086815260200190815260200160002054905060008111613223576040517f08c379a000000000000000000000000000000000000000000000000000000000815260040161321a90615c22565b60405180910390fd5b816003015481101561326a576040517f08c379a000000000000000000000000000000000000000000000000000000000815260040161326190615c8e565b60405180910390fd5b6000600860003373ffffffffffffffffffffffffffffffffffffffff1673ffffffffffffffffffffffffffffffffffffffff1681526020019081526020016000206000878152602001908152602001600020819055506000600660008673ffffffffffffffffffffffffffffffffffffffff1673ffffffffffffffffffffffffffffffffffffffff1681526020019081526020016000209050818160030160008282546133179190615540565b925050819055506000600760003373ffffffffffffffffffffffffffffffffffffffff1673ffffffffffffffffffffffffffffffffffffffff1681526020019081526020016000209050828160030160008282546133759190615cae565b925050819055507f6e3c6096795c8298a218b2cfb8bde42726ff7c9a3d27b4d3ba41ab7f74feb5fb8787856040516133af93929190615574565b60405180910390a150505050505050565b6060600060149054906101000a900460ff1660ff1667ffffffffffffffff8111156133ee576133ed613feb565b5b60405190808252806020026020018201604052801561342757816020015b613414613b9e565b81526020019060019003908161340c5790505b50905060005b600060149054906101000a900460ff1660ff1681101561374357600560006001836134589190615540565b8152602001908152602001600020604051806101000160405290816000820160009054906101000a900460ff1660ff1660ff1681526020016000820160019054906101000a900473ffffffffffffffffffffffffffffffffffffffff1673ffffffffffffffffffffffffffffffffffffffff1673ffffffffffffffffffffffffffffffffffffffff1681526020016001820180546134f590614f9f565b80601f016020809104026020016040519081016040528092919081815260200182805461352190614f9f565b801561356e5780601f106135435761010080835404028352916020019161356e565b820191906000526020600020905b81548152906001019060200180831161355157829003601f168201915b5050505050815260200160028201805461358790614f9f565b80601f01602080910402602001604051908101604052809291908181526020018280546135b390614f9f565b80156136005780601f106135d557610100808354040283529160200191613600565b820191906000526020600020905b8154815290600101906020018083116135e357829003601f168201915b50505050508152602001600382015481526020016004820160009054906101000a900460ff16151515158152602001600582018054806020026020016040519081016040528092919081815260200182805480156136b357602002820191906000526020600020905b8160009054906101000a900473ffffffffffffffffffffffffffffffffffffffff1673ffffffffffffffffffffffffffffffffffffffff1681526020019060010190808311613669575b505050505081526020016006820160009054906101000a900473ffffffffffffffffffffffffffffffffffffffff1673ffffffffffffffffffffffffffffffffffffffff1673ffffffffffffffffffffffffffffffffffffffff168152505082828151811061372557613724615361565b5b6020026020010181905250808061373b9061506b565b91505061342d565b5090565b6000600860008473ffffffffffffffffffffffffffffffffffffffff1673ffffffffffffffffffffffffffffffffffffffff168152602001908152602001600020600083815260200190815260200160002054905092915050565b600060149054906101000a900460ff1660ff1681111580156137c45750600081115b613803576040517f08c379a00000000000000000000000000000000000000000000000000000000081526004016137fa90615727565b60405180910390fd5b6000600560008381526020019081526020016000209050600073ffffffffffffffffffffffffffffffffffffffff168160000160019054906101000a900473ffffffffffffffffffffffffffffffffffffffff1673ffffffffffffffffffffffffffffffffffffffff16036138ad576040517f08c379a00000000000000000000000000000000000000000000000000000000081526004016138a490615793565b60405180910390fd5b600073ffffffffffffffffffffffffffffffffffffffff163373ffffffffffffffffffffffffffffffffffffffff160361391c576040517f08c379a000000000000000000000000000000000000000000000000000000000815260040161391390615d2e565b60405180910390fd5b60005b81600501805490508110156139ef573373ffffffffffffffffffffffffffffffffffffffff1682600501828154811061395b5761395a615361565b5b9060005260206000200160009054906101000a900473ffffffffffffffffffffffffffffffffffffffff1673ffffffffffffffffffffffffffffffffffffffff16036139dc576040517f08c379a00000000000000000000000000000000000000000000000000000000081526004016139d390615d9a565b60405180910390fd5b80806139e79061506b565b91505061391f565b5080600501339080600181540180825580915050600190039060005260206000200160009091909190916101000a81548173ffffffffffffffffffffffffffffffffffffffff021916908373ffffffffffffffffffffffffffffffffffffffff1602179055507f2b443803772f6da2db17c7357119f932841870fdf0a3a5d8ca9d2e112bb13326828260000160019054906101000a900473ffffffffffffffffffffffffffffffffffffffff1633604051613aac93929190615dba565b60405180910390a15050565b60008173ffffffffffffffffffffffffffffffffffffffff168360060160009054906101000a900473ffffffffffffffffffffffffffffffffffffffff1673ffffffffffffffffffffffffffffffffffffffff1603613b1a5760019050613b1f565b600090505b92915050565b604051806101800160405280600073ffffffffffffffffffffffffffffffffffffffff168152602001606081526020016060815260200160008152602001606081526020016060815260200160608152602001606081526020016000815260200160001515815260200160008152602001600081525090565b604051806101000160405280600060ff168152602001600073ffffffffffffffffffffffffffffffffffffffff16815260200160608152602001606081526020016000815260200160001515815260200160608152602001600073ffffffffffffffffffffffffffffffffffffffff1681525090565b828054828255906000526020600020908101928215613c5c579160200282015b82811115613c5b578251829081613c4b919061525f565b5091602001919060010190613c34565b5b509050613c699190613d54565b5090565b828054828255906000526020600020908101928215613ce6579160200282015b82811115613ce55782518260006101000a81548173ffffffffffffffffffffffffffffffffffffffff021916908373ffffffffffffffffffffffffffffffffffffffff16021790555091602001919060010190613c8d565b5b509050613cf39190613d78565b5090565b604051806101000160405280600073ffffffffffffffffffffffffffffffffffffffff1681526020016060815260200160608152602001600081526020016060815260200160608152602001600015158152602001600081525090565b5b80821115613d745760008181613d6b9190613d95565b50600101613d55565b5090565b5b80821115613d91576000816000905550600101613d79565b5090565b508054613da190614f9f565b6000825580601f10613db35750613dd2565b601f016020900490600052602060002090810190613dd19190613d78565b5b50565b6000604051905090565b600080fd5b600080fd5b600073ffffffffffffffffffffffffffffffffffffffff82169050919050565b6000613e1482613de9565b9050919050565b613e2481613e09565b8114613e2f57600080fd5b50565b600081359050613e4181613e1b565b92915050565b600060208284031215613e5d57613e5c613ddf565b5b6000613e6b84828501613e32565b91505092915050565b613e7d81613e09565b82525050565b600081519050919050565b600082825260208201905092915050565b60005b83811015613ebd578082015181840152602081019050613ea2565b60008484015250505050565b6000601f19601f8301169050919050565b6000613ee582613e83565b613eef8185613e8e565b9350613eff818560208601613e9f565b613f0881613ec9565b840191505092915050565b6000819050919050565b613f2681613f13565b82525050565b60008115159050919050565b613f4181613f2c565b82525050565b600061010082019050613f5d600083018b613e74565b8181036020830152613f6f818a613eda565b90508181036040830152613f838189613eda565b9050613f926060830188613f1d565b8181036080830152613fa48187613eda565b905081810360a0830152613fb88186613eda565b9050613fc760c0830185613f38565b613fd460e0830184613f1d565b9998505050505050505050565b600080fd5b600080fd5b7f4e487b7100000000000000000000000000000000000000000000000000000000600052604160045260246000fd5b61402382613ec9565b810181811067ffffffffffffffff8211171561404257614041613feb565b5b80604052505050565b6000614055613dd5565b9050614061828261401a565b919050565b600067ffffffffffffffff82111561408157614080613feb565b5b61408a82613ec9565b9050602081019050919050565b82818337600083830152505050565b60006140b96140b484614066565b61404b565b9050828152602081018484840111156140d5576140d4613fe6565b5b6140e0848285614097565b509392505050565b600082601f8301126140fd576140fc613fe1565b5b813561410d8482602086016140a6565b91505092915050565b600080600080608085870312156141305761412f613ddf565b5b600085013567ffffffffffffffff81111561414e5761414d613de4565b5b61415a878288016140e8565b945050602085013567ffffffffffffffff81111561417b5761417a613de4565b5b614187878288016140e8565b935050604085013567ffffffffffffffff8111156141a8576141a7613de4565b5b6141b4878288016140e8565b925050606085013567ffffffffffffffff8111156141d5576141d4613de4565b5b6141e1878288016140e8565b91505092959194509250565b60006020820190506142026000830184613f1d565b92915050565b600060ff82169050919050565b61421e81614208565b82525050565b60006020820190506142396000830184614215565b92915050565b61424881613e09565b82525050565b600082825260208201905092915050565b600061426a82613e83565b614274818561424e565b9350614284818560208601613e9f565b61428d81613ec9565b840191505092915050565b6142a181613f13565b82525050565b600081519050919050565b600082825260208201905092915050565b6000819050602082019050919050565b60006142df838361425f565b905092915050565b6000602082019050919050565b60006142ff826142a7565b61430981856142b2565b93508360208202850161431b856142c3565b8060005b85811015614357578484038952815161433885826142d3565b9450614343836142e7565b925060208a0199505060018101905061431f565b50829750879550505050505092915050565b61437281613f2c565b82525050565b600061018083016000830151614391600086018261423f565b50602083015184820360208601526143a9828261425f565b915050604083015184820360408601526143c3828261425f565b91505060608301516143d86060860182614298565b50608083015184820360808601526143f0828261425f565b91505060a083015184820360a086015261440a828261425f565b91505060c083015184820360c0860152614424828261425f565b91505060e083015184820360e086015261443e82826142f4565b915050610100830151614455610100860182614298565b5061012083015161446a610120860182614369565b5061014083015161447f610140860182614298565b50610160830151614494610160860182614298565b508091505092915050565b600060208201905081810360008301526144b98184614378565b905092915050565b6000610160820190506144d7600083018e613e74565b81810360208301526144e9818d613eda565b905081810360408301526144fd818c613eda565b905061450c606083018b613f1d565b818103608083015261451e818a613eda565b905081810360a08301526145328189613eda565b905081810360c08301526145468188613eda565b905061455560e0830187613f1d565b614563610100830186613f38565b614571610120830185613f1d565b61457f610140830184613f1d565b9c9b505050505050505050505050565b600081519050919050565b600082825260208201905092915050565b6000819050602082019050919050565b6000610180830160008301516145d4600086018261423f565b50602083015184820360208601526145ec828261425f565b91505060408301518482036040860152614606828261425f565b915050606083015161461b6060860182614298565b5060808301518482036080860152614633828261425f565b91505060a083015184820360a086015261464d828261425f565b91505060c083015184820360c0860152614667828261425f565b91505060e083015184820360e086015261468182826142f4565b915050610100830151614698610100860182614298565b506101208301516146ad610120860182614369565b506101408301516146c2610140860182614298565b506101608301516146d7610160860182614298565b508091505092915050565b60006146ee83836145bb565b905092915050565b6000602082019050919050565b600061470e8261458f565b614718818561459a565b93508360208202850161472a856145ab565b8060005b85811015614766578484038952815161474785826146e2565b9450614752836146f6565b925060208a0199505060018101905061472e565b50829750879550505050505092915050565b600060208201905081810360008301526147928184614703565b905092915050565b6147a381613f13565b81146147ae57600080fd5b50565b6000813590506147c08161479a565b92915050565b6000602082840312156147dc576147db613ddf565b5b60006147ea848285016147b1565b91505092915050565b6147fc81614208565b82525050565b600081519050919050565b600082825260208201905092915050565b6000819050602082019050919050565b600061483a838361423f565b60208301905092915050565b6000602082019050919050565b600061485e82614802565b614868818561480d565b93506148738361481e565b8060005b838110156148a457815161488b888261482e565b975061489683614846565b925050600181019050614877565b5085935050505092915050565b6000610100830160008301516148ca60008601826147f3565b5060208301516148dd602086018261423f565b50604083015184820360408601526148f5828261425f565b9150506060830151848203606086015261490f828261425f565b91505060808301516149246080860182614298565b5060a083015161493760a0860182614369565b5060c083015184820360c086015261494f8282614853565b91505060e083015161496460e086018261423f565b508091505092915050565b6000602082019050818103600083015261498981846148b1565b905092915050565b600067ffffffffffffffff8211156149ac576149ab613feb565b5b602082029050602081019050919050565b600080fd5b60006149d56149d084614991565b61404b565b905080838252602082019050602084028301858111156149f8576149f76149bd565b5b835b81811015614a3f57803567ffffffffffffffff811115614a1d57614a1c613fe1565b5b808601614a2a89826140e8565b855260208501945050506020810190506149fa565b5050509392505050565b600082601f830112614a5e57614a5d613fe1565b5b8135614a6e8482602086016149c2565b91505092915050565b600080600080600080600060e0888a031215614a9657614a95613ddf565b5b600088013567ffffffffffffffff811115614ab457614ab3613de4565b5b614ac08a828b016140e8565b975050602088013567ffffffffffffffff811115614ae157614ae0613de4565b5b614aed8a828b016140e8565b965050604088013567ffffffffffffffff811115614b0e57614b0d613de4565b5b614b1a8a828b016140e8565b955050606088013567ffffffffffffffff811115614b3b57614b3a613de4565b5b614b478a828b016140e8565b945050608088013567ffffffffffffffff811115614b6857614b67613de4565b5b614b748a828b016140e8565b93505060a088013567ffffffffffffffff811115614b9557614b94613de4565b5b614ba18a828b01614a49565b92505060c0614bb28a828b016147b1565b91505092959891949750929550565b60008060408385031215614bd857614bd7613ddf565b5b6000614be6858286016147b1565b9250506020614bf785828601613e32565b9150509250929050565b600080600060608486031215614c1a57614c19613ddf565b5b600084013567ffffffffffffffff811115614c3857614c37613de4565b5b614c44868287016140e8565b935050602084013567ffffffffffffffff811115614c6557614c64613de4565b5b614c71868287016140e8565b9250506040614c82868287016147b1565b9150509250925092565b600061010083016000830151614ca5600086018261423f565b5060208301518482036020860152614cbd828261425f565b91505060408301518482036040860152614cd7828261425f565b9150506060830151614cec6060860182614298565b5060808301518482036080860152614d04828261425f565b91505060a083015184820360a0860152614d1e828261425f565b91505060c0830151614d3360c0860182614369565b5060e0830151614d4660e0860182614298565b508091505092915050565b60006020820190508181036000830152614d6b8184614c8c565b905092915050565b6000602082019050614d886000830184613e74565b92915050565b600081519050919050565b600082825260208201905092915050565b6000819050602082019050919050565b600061010083016000830151614dd360008601826147f3565b506020830151614de6602086018261423f565b5060408301518482036040860152614dfe828261425f565b91505060608301518482036060860152614e18828261425f565b9150506080830151614e2d6080860182614298565b5060a0830151614e4060a0860182614369565b5060c083015184820360c0860152614e588282614853565b91505060e0830151614e6d60e086018261423f565b508091505092915050565b6000614e848383614dba565b905092915050565b6000602082019050919050565b6000614ea482614d8e565b614eae8185614d99565b935083602082028501614ec085614daa565b8060005b85811015614efc5784840389528151614edd8582614e78565b9450614ee883614e8c565b925060208a01995050600181019050614ec4565b50829750879550505050505092915050565b60006020820190508181036000830152614f288184614e99565b905092915050565b60008060408385031215614f4757614f46613ddf565b5b6000614f5585828601613e32565b9250506020614f66858286016147b1565b9150509250929050565b7f4e487b7100000000000000000000000000000000000000000000000000000000600052602260045260246000fd5b60006002820490506001821680614fb757607f821691505b602082108103614fca57614fc9614f70565b5b50919050565b7f4152000000000000000000000000000000000000000000000000000000000000600082015250565b6000615006600283613e8e565b915061501182614fd0565b602082019050919050565b6000602082019050818103600083015261503581614ff9565b9050919050565b7f4e487b7100000000000000000000000000000000000000000000000000000000600052601160045260246000fd5b600061507682613f13565b91507fffffffffffffffffffffffffffffffffffffffffffffffffffffffffffffffff82036150a8576150a761503c565b5b600182019050919050565b60008190508160005260206000209050919050565b60006020601f8301049050919050565b600082821b905092915050565b6000600883026151157fffffffffffffffffffffffffffffffffffffffffffffffffffffffffffffffff826150d8565b61511f86836150d8565b95508019841693508086168417925050509392505050565b6000819050919050565b600061515c61515761515284613f13565b615137565b613f13565b9050919050565b6000819050919050565b61517683615141565b61518a61518282615163565b8484546150e5565b825550505050565b600090565b61519f615192565b6151aa81848461516d565b505050565b5b818110156151ce576151c3600082615197565b6001810190506151b0565b5050565b601f821115615213576151e4816150b3565b6151ed846150c8565b810160208510156151fc578190505b615210615208856150c8565b8301826151af565b50505b505050565b600082821c905092915050565b600061523660001984600802615218565b1980831691505092915050565b600061524f8383615225565b9150826002028217905092915050565b61526882613e83565b67ffffffffffffffff81111561528157615280613feb565b5b61528b8254614f9f565b6152968282856151d2565b600060209050601f8311600181146152c957600084156152b7578287015190505b6152c18582615243565b865550615329565b601f1984166152d7866150b3565b60005b828110156152ff578489015182556001820191506020850194506020810190506152da565b8683101561531c5784890151615318601f891682615225565b8355505b6001600288020188555050505b505050505050565b60006040820190506153466000830185613e74565b81810360208301526153588184613eda565b90509392505050565b7f4e487b7100000000000000000000000000000000000000000000000000000000600052603260045260246000fd5b7f494a000000000000000000000000000000000000000000000000000000000000600082015250565b60006153c6600283613e8e565b91506153d182615390565b602082019050919050565b600060208201905081810360008301526153f5816153b9565b9050919050565b7f4a44452e00000000000000000000000000000000000000000000000000000000600082015250565b6000615432600483613e8e565b915061543d826153fc565b602082019050919050565b6000602082019050818103600083015261546181615425565b9050919050565b7f4a41430000000000000000000000000000000000000000000000000000000000600082015250565b600061549e600383613e8e565b91506154a982615468565b602082019050919050565b600060208201905081810360008301526154cd81615491565b9050919050565b7f4941000000000000000000000000000000000000000000000000000000000000600082015250565b600061550a600283613e8e565b9150615515826154d4565b602082019050919050565b60006020820190508181036000830152615539816154fd565b9050919050565b600061554b82613f13565b915061555683613f13565b925082820190508082111561556e5761556d61503c565b5b92915050565b60006060820190506155896000830186613f1d565b6155966020830185613e74565b6155a36040830184613f1d565b949350505050565b600082825260208201905092915050565b60006155c7826142a7565b6155d181856155ab565b9350836020820285016155e3856142c3565b8060005b8581101561561f578484038952815161560085826142d3565b945061560b836142e7565b925060208a019950506001810190506155e7565b50829750879550505050505092915050565b60006060820190506156466000830186613e74565b818103602083015261565881856155bc565b90506156676040830184613f1d565b949350505050565b7f4f45460000000000000000000000000000000000000000000000000000000000600082015250565b60006156a5600383613e8e565b91506156b08261566f565b602082019050919050565b600060208201905081810360008301526156d481615698565b9050919050565b7f4a44450000000000000000000000000000000000000000000000000000000000600082015250565b6000615711600383613e8e565b915061571c826156db565b602082019050919050565b6000602082019050818103600083015261574081615704565b9050919050565b7f4a4e460000000000000000000000000000000000000000000000000000000000600082015250565b600061577d600383613e8e565b915061578882615747565b602082019050919050565b600060208201905081810360008301526157ac81615770565b9050919050565b7f464e480000000000000000000000000000000000000000000000000000000000600082015250565b60006157e9600383613e8e565b91506157f4826157b3565b602082019050919050565b60006020820190508181036000830152615818816157dc565b9050919050565b600061582a82614208565b915060ff820361583d5761583c61503c565b5b600182019050919050565b600061586361585e61585984614208565b615137565b613f13565b9050919050565b61587381615848565b82525050565b600060408201905061588e600083018561586a565b81810360208301526158a08184613eda565b90509392505050565b7f4641480000000000000000000000000000000000000000000000000000000000600082015250565b60006158df600383613e8e565b91506158ea826158a9565b602082019050919050565b6000602082019050818103600083015261590e816158d2565b9050919050565b7f4f46460000000000000000000000000000000000000000000000000000000000600082015250565b600061594b600383613e8e565b915061595682615915565b602082019050919050565b6000602082019050818103600083015261597a8161593e565b9050919050565b7f4e42570000000000000000000000000000000000000000000000000000000000600082015250565b60006159b7600383613e8e565b91506159c282615981565b602082019050919050565b600060208201905081810360008301526159e6816159aa565b9050919050565b60006159f882613f13565b9150615a0383613f13565b9250828202615a1181613f13565b91508282048414831517615a2857615a2761503c565b5b5092915050565b7f4e487b7100000000000000000000000000000000000000000000000000000000600052601260045260246000fd5b6000615a6982613f13565b9150615a7483613f13565b925082615a8457615a83615a2f565b5b828204905092915050565b600081905092915050565b50565b6000615aaa600083615a8f565b9150615ab582615a9a565b600082019050919050565b6000615acb82615a9d565b9150819050919050565b7f5446000000000000000000000000000000000000000000000000000000000000600082015250565b6000615b0b600283613e8e565b9150615b1682615ad5565b602082019050919050565b60006020820190508181036000830152615b3a81615afe565b9050919050565b6000604082019050615b566000830185613e74565b615b636020830184613f1d565b9392505050565b7f4a4e430000000000000000000000000000000000000000000000000000000000600082015250565b6000615ba0600383613e8e565b9150615bab82615b6a565b602082019050919050565b60006020820190508181036000830152615bcf81615b93565b9050919050565b7f4e46450000000000000000000000000000000000000000000000000000000000600082015250565b6000615c0c600383613e8e565b9150615c1782615bd6565b602082019050919050565b60006020820190508181036000830152615c3b81615bff565b9050919050565b7f4946000000000000000000000000000000000000000000000000000000000000600082015250565b6000615c78600283613e8e565b9150615c8382615c42565b602082019050919050565b60006020820190508181036000830152615ca781615c6b565b9050919050565b6000615cb982613f13565b9150615cc483613f13565b9250828203905081811115615cdc57615cdb61503c565b5b92915050565b7f49412e0000000000000000000000000000000000000000000000000000000000600082015250565b6000615d18600383613e8e565b9150615d2382615ce2565b602082019050919050565b60006020820190508181036000830152615d4781615d0b565b9050919050565b7f5948410000000000000000000000000000000000000000000000000000000000600082015250565b6000615d84600383613e8e565b9150615d8f82615d4e565b602082019050919050565b60006020820190508181036000830152615db381615d77565b9050919050565b6000606082019050615dcf6000830186613f1d565b615ddc6020830185613e74565b615de96040830184613e74565b94935050505056fea2646970667358221220768e499c0e30626d550733de6ff240b26bc4133977296e6ff34dd6e74202c40164736f6c63430008140033",
  "devdoc": {
    "kind": "dev",
    "methods": {
      "allJobs()": {
        "returns": {
          "props": "props"
        }
      },
      "applyForJob(uint256)": {
        "params": {
          "jobId": ", job id"
        }
      },
      "completeJob(uint256,address)": {
        "params": {
          "jobId": ", @param freelancerAddress"
        }
      },
      "createJob(string,string,uint256)": {
        "params": {
          "_title": ", @param _description, @param _budget"
        }
      },
      "depositFunds(uint256)": {
        "params": {
          "jobId": ", job id"
        }
      },
      "getEmployerByAddress(address)": {
        "params": {
          "_employer": ", address"
        },
        "returns": {
          "props": "props"
        }
      },
      "getEmployerEscrow(address,uint256)": {
        "params": {
          "_employer": ", @param _job_id"
        },
        "returns": {
          "_0": "uint"
        }
      },
      "getFreelancerByAddress(address)": {
        "params": {
          "_freelancer": ", address"
        },
        "returns": {
          "props": "props"
        }
      },
      "getJobByID(uint256)": {
        "params": {
          "jobId": ", jobId"
        },
        "returns": {
          "props": "props"
        }
      },
      "hireFreelancer(uint256,address)": {
        "params": {
          "jobId": ", @param freelancerAddress"
        }
      },
      "registerEmployer(string,string,string,string)": {
        "params": {
          "_name": ", @param _industry"
        }
      },
      "registerFreelancer(string,string,string,string,string,string[],uint256)": {
        "params": {
          "_name": ", @param _skills"
        }
      },
      "releaseEscrow(uint256,address)": {
        "params": {
          "jobId": ", @param freelancerAddress"
        }
      }
    },
    "version": 1
  },
  "userdoc": {
    "kind": "user",
    "methods": {
      "allJobs()": {
        "notice": "retrieves all jobs"
      },
      "applyForJob(uint256)": {
        "notice": "job application"
      },
      "completeJob(uint256,address)": {
        "notice": "process job completion"
      },
      "createJob(string,string,uint256)": {
        "notice": "job creation and increment job count,"
      },
      "depositFunds(uint256)": {
        "notice": "process employer funds deposit for a specific job"
      },
      "getAllFreelancers()": {
        "notice": "return all freelancers"
      },
      "getEmployerByAddress(address)": {
        "notice": "retrieves employer by address"
      },
      "getEmployerEscrow(address,uint256)": {
        "notice": "retrieves employer escrow balance"
      },
      "getFreelancerByAddress(address)": {
        "notice": "retrieves freelancer by address"
      },
      "getJobByID(uint256)": {
        "notice": "retrieves job by ID"
      },
      "hireFreelancer(uint256,address)": {
        "notice": "hiring freelancer and check if freelancer is not already hired for the job"
      },
      "registerEmployer(string,string,string,string)": {
        "notice": "process employer registration"
      },
      "registerFreelancer(string,string,string,string,string,string[],uint256)": {
        "notice": "process freelancer registration"
      },
      "releaseEscrow(uint256,address)": {
        "notice": "release escrow fund after successful completion of the job"
      },
      "withdrawEarnings()": {
        "notice": "process funds withdrawal to the freelancer after successful completion of a job"
      }
    },
    "version": 1
  },
  "storageLayout": {
    "storage": [
      {
        "astId": 584,
        "contract": "contracts/Freelancer.sol:Dfreelancer",
        "label": "owner",
        "offset": 0,
        "slot": "0",
        "type": "t_address"
      },
      {
        "astId": 586,
        "contract": "contracts/Freelancer.sol:Dfreelancer",
        "label": "totalJobs",
        "offset": 20,
        "slot": "0",
        "type": "t_uint8"
      },
      {
        "astId": 588,
        "contract": "contracts/Freelancer.sol:Dfreelancer",
        "label": "totalFreelancers",
        "offset": 0,
        "slot": "1",
        "type": "t_uint256"
      },
      {
        "astId": 590,
        "contract": "contracts/Freelancer.sol:Dfreelancer",
        "label": "totalEmployers",
        "offset": 0,
        "slot": "2",
        "type": "t_uint256"
      },
      {
        "astId": 592,
        "contract": "contracts/Freelancer.sol:Dfreelancer",
        "label": "totalCompletedJobs",
        "offset": 0,
        "slot": "3",
        "type": "t_uint256"
      },
      {
        "astId": 595,
        "contract": "contracts/Freelancer.sol:Dfreelancer",
        "label": "allFreelancerAddresses",
        "offset": 0,
        "slot": "4",
        "type": "t_array(t_address)dyn_storage"
      },
      {
        "astId": 661,
        "contract": "contracts/Freelancer.sol:Dfreelancer",
        "label": "jobs",
        "offset": 0,
        "slot": "5",
        "type": "t_mapping(t_uint256,t_struct(Job)613_storage)"
      },
      {
        "astId": 666,
        "contract": "contracts/Freelancer.sol:Dfreelancer",
        "label": "freelancers",
        "offset": 0,
        "slot": "6",
        "type": "t_mapping(t_address,t_struct(Freelancer)639_storage)"
      },
      {
        "astId": 671,
        "contract": "contracts/Freelancer.sol:Dfreelancer",
        "label": "employers",
        "offset": 0,
        "slot": "7",
        "type": "t_mapping(t_address,t_struct(Employer)656_storage)"
      },
      {
        "astId": 677,
        "contract": "contracts/Freelancer.sol:Dfreelancer",
        "label": "escrowFunds",
        "offset": 0,
        "slot": "8",
        "type": "t_mapping(t_address,t_mapping(t_uint256,t_uint256))"
      }
    ],
    "types": {
      "t_address": {
        "encoding": "inplace",
        "label": "address",
        "numberOfBytes": "20"
      },
      "t_array(t_address)dyn_storage": {
        "base": "t_address",
        "encoding": "dynamic_array",
        "label": "address[]",
        "numberOfBytes": "32"
      },
      "t_array(t_string_storage)dyn_storage": {
        "base": "t_string_storage",
        "encoding": "dynamic_array",
        "label": "string[]",
        "numberOfBytes": "32"
      },
      "t_bool": {
        "encoding": "inplace",
        "label": "bool",
        "numberOfBytes": "1"
      },
      "t_mapping(t_address,t_mapping(t_uint256,t_uint256))": {
        "encoding": "mapping",
        "key": "t_address",
        "label": "mapping(address => mapping(uint256 => uint256))",
        "numberOfBytes": "32",
        "value": "t_mapping(t_uint256,t_uint256)"
      },
      "t_mapping(t_address,t_struct(Employer)656_storage)": {
        "encoding": "mapping",
        "key": "t_address",
        "label": "mapping(address => struct Djob.Employer)",
        "numberOfBytes": "32",
        "value": "t_struct(Employer)656_storage"
      },
      "t_mapping(t_address,t_struct(Freelancer)639_storage)": {
        "encoding": "mapping",
        "key": "t_address",
        "label": "mapping(address => struct Djob.Freelancer)",
        "numberOfBytes": "32",
        "value": "t_struct(Freelancer)639_storage"
      },
      "t_mapping(t_uint256,t_struct(Job)613_storage)": {
        "encoding": "mapping",
        "key": "t_uint256",
        "label": "mapping(uint256 => struct Djob.Job)",
        "numberOfBytes": "32",
        "value": "t_struct(Job)613_storage"
      },
      "t_mapping(t_uint256,t_uint256)": {
        "encoding": "mapping",
        "key": "t_uint256",
        "label": "mapping(uint256 => uint256)",
        "numberOfBytes": "32",
        "value": "t_uint256"
      },
      "t_string_storage": {
        "encoding": "bytes",
        "label": "string",
        "numberOfBytes": "32"
      },
      "t_struct(Employer)656_storage": {
        "encoding": "inplace",
        "label": "struct Djob.Employer",
        "members": [
          {
            "astId": 641,
            "contract": "contracts/Freelancer.sol:Dfreelancer",
            "label": "employerAddress",
            "offset": 0,
            "slot": "0",
            "type": "t_address"
          },
          {
            "astId": 643,
            "contract": "contracts/Freelancer.sol:Dfreelancer",
            "label": "name",
            "offset": 0,
            "slot": "1",
            "type": "t_string_storage"
          },
          {
            "astId": 645,
            "contract": "contracts/Freelancer.sol:Dfreelancer",
            "label": "industry",
            "offset": 0,
            "slot": "2",
            "type": "t_string_storage"
          },
          {
            "astId": 647,
            "contract": "contracts/Freelancer.sol:Dfreelancer",
            "label": "balance",
            "offset": 0,
            "slot": "3",
            "type": "t_uint256"
          },
          {
            "astId": 649,
            "contract": "contracts/Freelancer.sol:Dfreelancer",
            "label": "country",
            "offset": 0,
            "slot": "4",
            "type": "t_string_storage"
          },
          {
            "astId": 651,
            "contract": "contracts/Freelancer.sol:Dfreelancer",
            "label": "image",
            "offset": 0,
            "slot": "5",
            "type": "t_string_storage"
          },
          {
            "astId": 653,
            "contract": "contracts/Freelancer.sol:Dfreelancer",
            "label": "registered",
            "offset": 0,
            "slot": "6",
            "type": "t_bool"
          },
          {
            "astId": 655,
            "contract": "contracts/Freelancer.sol:Dfreelancer",
            "label": "registration_date",
            "offset": 0,
            "slot": "7",
            "type": "t_uint256"
          }
        ],
        "numberOfBytes": "256"
      },
      "t_struct(Freelancer)639_storage": {
        "encoding": "inplace",
        "label": "struct Djob.Freelancer",
        "members": [
          {
            "astId": 615,
            "contract": "contracts/Freelancer.sol:Dfreelancer",
            "label": "freelancerAddress",
            "offset": 0,
            "slot": "0",
            "type": "t_address"
          },
          {
            "astId": 617,
            "contract": "contracts/Freelancer.sol:Dfreelancer",
            "label": "name",
            "offset": 0,
            "slot": "1",
            "type": "t_string_storage"
          },
          {
            "astId": 619,
            "contract": "contracts/Freelancer.sol:Dfreelancer",
            "label": "skills",
            "offset": 0,
            "slot": "2",
            "type": "t_string_storage"
          },
          {
            "astId": 621,
            "contract": "contracts/Freelancer.sol:Dfreelancer",
            "label": "balance",
            "offset": 0,
            "slot": "3",
            "type": "t_uint256"
          },
          {
            "astId": 623,
            "contract": "contracts/Freelancer.sol:Dfreelancer",
            "label": "country",
            "offset": 0,
            "slot": "4",
            "type": "t_string_storage"
          },
          {
            "astId": 625,
            "contract": "contracts/Freelancer.sol:Dfreelancer",
            "label": "gigTitle",
            "offset": 0,
            "slot": "5",
            "type": "t_string_storage"
          },
          {
            "astId": 627,
            "contract": "contracts/Freelancer.sol:Dfreelancer",
            "label": "gitDescription",
            "offset": 0,
            "slot": "6",
            "type": "t_string_storage"
          },
          {
            "astId": 630,
            "contract": "contracts/Freelancer.sol:Dfreelancer",
            "label": "images",
            "offset": 0,
            "slot": "7",
            "type": "t_array(t_string_storage)dyn_storage"
          },
          {
            "astId": 632,
            "contract": "contracts/Freelancer.sol:Dfreelancer",
            "label": "jobsCompleted",
            "offset": 0,
            "slot": "8",
            "type": "t_uint256"
          },
          {
            "astId": 634,
            "contract": "contracts/Freelancer.sol:Dfreelancer",
            "label": "registered",
            "offset": 0,
            "slot": "9",
            "type": "t_bool"
          },
          {
            "astId": 636,
            "contract": "contracts/Freelancer.sol:Dfreelancer",
            "label": "registration_date",
            "offset": 0,
            "slot": "10",
            "type": "t_uint256"
          },
          {
            "astId": 638,
            "contract": "contracts/Freelancer.sol:Dfreelancer",
            "label": "starting_price",
            "offset": 0,
            "slot": "11",
            "type": "t_uint256"
          }
        ],
        "numberOfBytes": "384"
      },
      "t_struct(Job)613_storage": {
        "encoding": "inplace",
        "label": "struct Djob.Job",
        "members": [
          {
            "astId": 597,
            "contract": "contracts/Freelancer.sol:Dfreelancer",
            "label": "id",
            "offset": 0,
            "slot": "0",
            "type": "t_uint8"
          },
          {
            "astId": 599,
            "contract": "contracts/Freelancer.sol:Dfreelancer",
            "label": "employer",
            "offset": 1,
            "slot": "0",
            "type": "t_address"
          },
          {
            "astId": 601,
            "contract": "contracts/Freelancer.sol:Dfreelancer",
            "label": "title",
            "offset": 0,
            "slot": "1",
            "type": "t_string_storage"
          },
          {
            "astId": 603,
            "contract": "contracts/Freelancer.sol:Dfreelancer",
            "label": "description",
            "offset": 0,
            "slot": "2",
            "type": "t_string_storage"
          },
          {
            "astId": 605,
            "contract": "contracts/Freelancer.sol:Dfreelancer",
            "label": "budget",
            "offset": 0,
            "slot": "3",
            "type": "t_uint256"
          },
          {
            "astId": 607,
            "contract": "contracts/Freelancer.sol:Dfreelancer",
            "label": "completed",
            "offset": 0,
            "slot": "4",
            "type": "t_bool"
          },
          {
            "astId": 610,
            "contract": "contracts/Freelancer.sol:Dfreelancer",
            "label": "applicants",
            "offset": 0,
            "slot": "5",
            "type": "t_array(t_address)dyn_storage"
          },
          {
            "astId": 612,
            "contract": "contracts/Freelancer.sol:Dfreelancer",
            "label": "hiredFreelancer",
            "offset": 0,
            "slot": "6",
            "type": "t_address"
          }
        ],
        "numberOfBytes": "224"
      },
      "t_uint256": {
        "encoding": "inplace",
        "label": "uint256",
        "numberOfBytes": "32"
      },
      "t_uint8": {
        "encoding": "inplace",
        "label": "uint8",
        "numberOfBytes": "1"
      }
    }
  }
}